{
  "_format": "hh-sol-artifact-1",
  "contractName": "Organization",
  "sourceName": "contracts/Organization.sol",
  "abi": [
    {
      "inputs": [
        {
          "internalType": "string",
          "name": "_name",
          "type": "string"
        },
        {
          "internalType": "string",
          "name": "_description",
          "type": "string"
        },
        {
          "internalType": "string",
          "name": "_website",
          "type": "string"
        },
        {
          "internalType": "string",
          "name": "_logo",
          "type": "string"
        },
        {
          "internalType": "address",
          "name": "creator",
          "type": "address"
        }
      ],
      "stateMutability": "nonpayable",
      "type": "constructor"
    },
    {
      "inputs": [
        {
          "internalType": "uint256",
          "name": "",
          "type": "uint256"
        }
      ],
      "name": "campaigns",
      "outputs": [
        {
          "internalType": "address",
          "name": "",
          "type": "address"
        }
      ],
      "stateMutability": "view",
      "type": "function"
    },
    {
      "inputs": [],
      "name": "campaignsCount",
      "outputs": [
        {
          "internalType": "uint256",
          "name": "",
          "type": "uint256"
        }
      ],
      "stateMutability": "view",
      "type": "function"
    },
    {
      "inputs": [],
      "name": "contribute",
      "outputs": [],
      "stateMutability": "payable",
      "type": "function"
    },
    {
      "inputs": [
        {
          "internalType": "address",
          "name": "",
          "type": "address"
        }
      ],
      "name": "contributers",
      "outputs": [
        {
          "internalType": "bool",
          "name": "",
          "type": "bool"
        }
      ],
      "stateMutability": "view",
      "type": "function"
    },
    {
      "inputs": [],
      "name": "contributersCount",
      "outputs": [
        {
          "internalType": "uint256",
          "name": "",
          "type": "uint256"
        }
      ],
      "stateMutability": "view",
      "type": "function"
    },
    {
      "inputs": [],
      "name": "description",
      "outputs": [
        {
          "internalType": "string",
          "name": "",
          "type": "string"
        }
      ],
      "stateMutability": "view",
      "type": "function"
    },
    {
      "inputs": [],
      "name": "details",
      "outputs": [
        {
          "internalType": "string",
          "name": "name",
          "type": "string"
        },
        {
          "internalType": "string",
          "name": "description",
          "type": "string"
        },
        {
          "internalType": "string",
          "name": "website",
          "type": "string"
        },
        {
          "internalType": "string",
          "name": "logo",
          "type": "string"
        }
      ],
      "stateMutability": "view",
      "type": "function"
    },
    {
      "inputs": [
        {
          "internalType": "address",
          "name": "campaignAddress",
          "type": "address"
        }
      ],
      "name": "enrollInCampaign",
      "outputs": [],
      "stateMutability": "nonpayable",
      "type": "function"
    },
    {
      "inputs": [],
      "name": "getAllCampaigns",
      "outputs": [
        {
          "internalType": "address[]",
          "name": "",
          "type": "address[]"
        }
      ],
      "stateMutability": "view",
      "type": "function"
    },
    {
      "inputs": [],
      "name": "getAllContributers",
      "outputs": [
        {
          "internalType": "address[]",
          "name": "",
          "type": "address[]"
        }
      ],
      "stateMutability": "view",
      "type": "function"
    },
    {
      "inputs": [],
      "name": "getBalance",
      "outputs": [
        {
          "internalType": "uint256",
          "name": "",
          "type": "uint256"
        }
      ],
      "stateMutability": "view",
      "type": "function"
    },
    {
      "inputs": [],
      "name": "getCampaignsCount",
      "outputs": [
        {
          "internalType": "uint256",
          "name": "",
          "type": "uint256"
        }
      ],
      "stateMutability": "view",
      "type": "function"
    },
    {
      "inputs": [],
      "name": "getDetails",
      "outputs": [
        {
          "components": [
            {
              "internalType": "string",
              "name": "name",
              "type": "string"
            },
            {
              "internalType": "string",
              "name": "description",
              "type": "string"
            },
            {
              "internalType": "string",
              "name": "website",
              "type": "string"
            },
            {
              "internalType": "string",
              "name": "logo",
              "type": "string"
            }
          ],
          "internalType": "struct Organization.OrganizationDetails",
          "name": "",
          "type": "tuple"
        }
      ],
      "stateMutability": "view",
      "type": "function"
    },
    {
      "inputs": [],
      "name": "getMinimumContribution",
      "outputs": [
        {
          "internalType": "uint256",
          "name": "",
          "type": "uint256"
        }
      ],
      "stateMutability": "view",
      "type": "function"
    },
    {
      "inputs": [],
      "name": "incrementCampaignsCount",
      "outputs": [],
      "stateMutability": "nonpayable",
      "type": "function"
    },
    {
      "inputs": [],
      "name": "logo",
      "outputs": [
        {
          "internalType": "string",
          "name": "",
          "type": "string"
        }
      ],
      "stateMutability": "view",
      "type": "function"
    },
    {
      "inputs": [],
      "name": "minimumContribution",
      "outputs": [
        {
          "internalType": "uint256",
          "name": "",
          "type": "uint256"
        }
      ],
      "stateMutability": "view",
      "type": "function"
    },
    {
      "inputs": [],
      "name": "name",
      "outputs": [
        {
          "internalType": "string",
          "name": "",
          "type": "string"
        }
      ],
      "stateMutability": "view",
      "type": "function"
    },
    {
      "inputs": [],
      "name": "owner",
      "outputs": [
        {
          "internalType": "address",
          "name": "",
          "type": "address"
        }
      ],
      "stateMutability": "view",
      "type": "function"
    },
    {
      "inputs": [],
      "name": "website",
      "outputs": [
        {
          "internalType": "string",
          "name": "",
          "type": "string"
        }
      ],
      "stateMutability": "view",
      "type": "function"
    },
    {
      "inputs": [
        {
          "internalType": "address payable",
          "name": "recipient",
          "type": "address"
        }
      ],
      "name": "withdrawAllMoney",
      "outputs": [],
      "stateMutability": "nonpayable",
      "type": "function"
    },
    {
      "inputs": [
        {
          "internalType": "address payable",
          "name": "recipient",
          "type": "address"
        },
        {
          "internalType": "uint256",
          "name": "amount",
          "type": "uint256"
        }
      ],
      "name": "withdrawMoney",
      "outputs": [],
      "stateMutability": "nonpayable",
      "type": "function"
    }
  ],
  "bytecode": "0x60806040523480156200001157600080fd5b5060405162001de738038062001de78339818101604052810190620000379190620002ce565b806000806101000a81548173ffffffffffffffffffffffffffffffffffffffff021916908373ffffffffffffffffffffffffffffffffffffffff16021790555084600a60000190816200008b91906200061d565b5083600a6001019081620000a091906200061d565b5082600a6002019081620000b591906200061d565b5081600a6003019081620000ca91906200061d565b50505050505062000704565b6000604051905090565b600080fd5b600080fd5b600080fd5b600080fd5b6000601f19601f8301169050919050565b7f4e487b7100000000000000000000000000000000000000000000000000000000600052604160045260246000fd5b6200013f82620000f4565b810181811067ffffffffffffffff8211171562000161576200016062000105565b5b80604052505050565b600062000176620000d6565b905062000184828262000134565b919050565b600067ffffffffffffffff821115620001a757620001a662000105565b5b620001b282620000f4565b9050602081019050919050565b60005b83811015620001df578082015181840152602081019050620001c2565b60008484015250505050565b600062000202620001fc8462000189565b6200016a565b905082815260208101848484011115620002215762000220620000ef565b5b6200022e848285620001bf565b509392505050565b600082601f8301126200024e576200024d620000ea565b5b815162000260848260208601620001eb565b91505092915050565b600073ffffffffffffffffffffffffffffffffffffffff82169050919050565b6000620002968262000269565b9050919050565b620002a88162000289565b8114620002b457600080fd5b50565b600081519050620002c8816200029d565b92915050565b600080600080600060a08688031215620002ed57620002ec620000e0565b5b600086015167ffffffffffffffff8111156200030e576200030d620000e5565b5b6200031c8882890162000236565b955050602086015167ffffffffffffffff81111562000340576200033f620000e5565b5b6200034e8882890162000236565b945050604086015167ffffffffffffffff811115620003725762000371620000e5565b5b620003808882890162000236565b935050606086015167ffffffffffffffff811115620003a457620003a3620000e5565b5b620003b28882890162000236565b9250506080620003c588828901620002b7565b9150509295509295909350565b600081519050919050565b7f4e487b7100000000000000000000000000000000000000000000000000000000600052602260045260246000fd5b600060028204905060018216806200042557607f821691505b6020821081036200043b576200043a620003dd565b5b50919050565b60008190508160005260206000209050919050565b60006020601f8301049050919050565b600082821b905092915050565b600060088302620004a57fffffffffffffffffffffffffffffffffffffffffffffffffffffffffffffffff8262000466565b620004b1868362000466565b95508019841693508086168417925050509392505050565b6000819050919050565b6000819050919050565b6000620004fe620004f8620004f284620004c9565b620004d3565b620004c9565b9050919050565b6000819050919050565b6200051a83620004dd565b62000532620005298262000505565b84845462000473565b825550505050565b600090565b620005496200053a565b620005568184846200050f565b505050565b5b818110156200057e57620005726000826200053f565b6001810190506200055c565b5050565b601f821115620005cd57620005978162000441565b620005a28462000456565b81016020851015620005b2578190505b620005ca620005c18562000456565b8301826200055b565b50505b505050565b600082821c905092915050565b6000620005f260001984600802620005d2565b1980831691505092915050565b60006200060d8383620005df565b9150826002028217905092915050565b6200062882620003d2565b67ffffffffffffffff81111562000644576200064362000105565b5b6200065082546200040c565b6200065d82828562000582565b600060209050601f83116001811462000695576000841562000680578287015190505b6200068c8582620005ff565b865550620006fc565b601f198416620006a58662000441565b60005b82811015620006cf57848901518255600182019150602085019450602081019050620006a8565b86831015620006ef5784890151620006eb601f891682620005df565b8355505b6001600288020188555050505b505050505050565b6116d380620007146000396000f3fe6080604052600436106101355760003560e01c80638da5cb5b116100ab578063d7bb99ba1161006f578063d7bb99ba146103f9578063e9f146a314610403578063f274c8971461042e578063f84038b114610457578063fb7f21eb14610482578063fbbf93a0146104ad57610135565b80638da5cb5b14610324578063937e09b11461034f578063beb0a4161461037a578063cb31ac9a146103a5578063d0e06220146103d057610135565b806344c89b65116100fd57806344c89b6514610233578063565974d31461025e5780637284e4161461028c5780637dafd3c0146102b75780637e6253da146102ce57806386cdf604146102f957610135565b806306fdde031461013a5780630adec93c1461016557806312065fe01461018e578063141961bc146101b957806334b66460146101f6575b600080fd5b34801561014657600080fd5b5061014f6104d8565b60405161015c91906110f9565b60405180910390f35b34801561017157600080fd5b5061018c6004803603810190610187919061117e565b610566565b005b34801561019a57600080fd5b506101a361060f565b6040516101b091906111c4565b60405180910390f35b3480156101c557600080fd5b506101e060048036038101906101db919061120b565b610617565b6040516101ed9190611259565b60405180910390f35b34801561020257600080fd5b5061021d600480360381019061021891906112a0565b610656565b60405161022a91906112e8565b60405180910390f35b34801561023f57600080fd5b50610248610676565b60405161025591906111c4565b60405180910390f35b34801561026a57600080fd5b5061027361067c565b6040516102839493929190611303565b60405180910390f35b34801561029857600080fd5b506102a16108ba565b6040516102ae91906110f9565b60405180910390f35b3480156102c357600080fd5b506102cc610948565b005b3480156102da57600080fd5b506102e3610962565b6040516102f091906111c4565b60405180910390f35b34801561030557600080fd5b5061030e61096c565b60405161031b9190611422565b60405180910390f35b34801561033057600080fd5b506103396109fa565b6040516103469190611259565b60405180910390f35b34801561035b57600080fd5b50610364610a1e565b60405161037191906111c4565b60405180910390f35b34801561038657600080fd5b5061038f610a24565b60405161039c91906110f9565b60405180910390f35b3480156103b157600080fd5b506103ba610ab2565b6040516103c79190611422565b60405180910390f35b3480156103dc57600080fd5b506103f760048036038101906103f291906112a0565b610ba3565b005b610401610c18565b005b34801561040f57600080fd5b50610418610c8a565b60405161042591906111c4565b60405180910390f35b34801561043a57600080fd5b5061045560048036038101906104509190611444565b610c90565b005b34801561046357600080fd5b5061046c610d47565b60405161047991906111c4565b60405180910390f35b34801561048e57600080fd5b50610497610d51565b6040516104a491906110f9565b60405180910390f35b3480156104b957600080fd5b506104c2610ddf565b6040516104cf9190611546565b60405180910390f35b600180546104e590611597565b80601f016020809104026020016040519081016040528092919081815260200182805461051190611597565b801561055e5780601f106105335761010080835404028352916020019161055e565b820191906000526020600020905b81548152906001019060200180831161054157829003601f168201915b505050505081565b60008054906101000a900473ffffffffffffffffffffffffffffffffffffffff1673ffffffffffffffffffffffffffffffffffffffff163373ffffffffffffffffffffffffffffffffffffffff16146105be57600080fd5b8073ffffffffffffffffffffffffffffffffffffffff166108fc6105e061060f565b9081150290604051600060405180830381858888f1935050505015801561060b573d6000803e3d6000fd5b5050565b600047905090565b6009818154811061062757600080fd5b906000526020600020016000915054906101000a900473ffffffffffffffffffffffffffffffffffffffff1681565b60066020528060005260406000206000915054906101000a900460ff1681565b60085481565b600a80600001805461068d90611597565b80601f01602080910402602001604051908101604052809291908181526020018280546106b990611597565b80156107065780601f106106db57610100808354040283529160200191610706565b820191906000526020600020905b8154815290600101906020018083116106e957829003601f168201915b50505050509080600101805461071b90611597565b80601f016020809104026020016040519081016040528092919081815260200182805461074790611597565b80156107945780601f1061076957610100808354040283529160200191610794565b820191906000526020600020905b81548152906001019060200180831161077757829003601f168201915b5050505050908060020180546107a990611597565b80601f01602080910402602001604051908101604052809291908181526020018280546107d590611597565b80156108225780601f106107f757610100808354040283529160200191610822565b820191906000526020600020905b81548152906001019060200180831161080557829003601f168201915b50505050509080600301805461083790611597565b80601f016020809104026020016040519081016040528092919081815260200182805461086390611597565b80156108b05780601f10610885576101008083540402835291602001916108b0565b820191906000526020600020905b81548152906001019060200180831161089357829003601f168201915b5050505050905084565b600280546108c790611597565b80601f01602080910402602001604051908101604052809291908181526020018280546108f390611597565b80156109405780601f1061091557610100808354040283529160200191610940565b820191906000526020600020905b81548152906001019060200180831161092357829003601f168201915b505050505081565b6008600081548092919061095b906115f7565b9190505550565b6000600854905090565b606060098054806020026020016040519081016040528092919081815260200182805480156109f057602002820191906000526020600020905b8160009054906101000a900473ffffffffffffffffffffffffffffffffffffffff1673ffffffffffffffffffffffffffffffffffffffff16815260200190600101908083116109a6575b5050505050905090565b60008054906101000a900473ffffffffffffffffffffffffffffffffffffffff1681565b60055481565b60038054610a3190611597565b80601f0160208091040260200160405190810160405280929190818152602001828054610a5d90611597565b8015610aaa5780601f10610a7f57610100808354040283529160200191610aaa565b820191906000526020600020905b815481529060010190602001808311610a8d57829003601f168201915b505050505081565b6060600060075467ffffffffffffffff811115610ad257610ad161163f565b5b604051908082528060200260200182016040528015610b005781602001602082028036833780820191505090505b5090506000805b600754811015610b9a57828181518110610b2457610b2361166e565b5b6020026020010151838381518110610b3f57610b3e61166e565b5b602002602001019073ffffffffffffffffffffffffffffffffffffffff16908173ffffffffffffffffffffffffffffffffffffffff16815250508180610b84906115f7565b9250508080610b92906115f7565b915050610b07565b50819250505090565b600360085410610bb257600080fd5b6009819080600181540180825580915050600190039060005260206000200160009091909190916101000a81548173ffffffffffffffffffffffffffffffffffffffff021916908373ffffffffffffffffffffffffffffffffffffffff16021790555050565b6001600660003373ffffffffffffffffffffffffffffffffffffffff1673ffffffffffffffffffffffffffffffffffffffff16815260200190815260200160002060006101000a81548160ff02191690831515021790555060076000815480929190610c83906115f7565b9190505550565b60075481565b60008054906101000a900473ffffffffffffffffffffffffffffffffffffffff1673ffffffffffffffffffffffffffffffffffffffff163373ffffffffffffffffffffffffffffffffffffffff1614610ce857600080fd5b610cf061060f565b811115610cfc57600080fd5b8173ffffffffffffffffffffffffffffffffffffffff166108fc829081150290604051600060405180830381858888f19350505050158015610d42573d6000803e3d6000fd5b505050565b6000600554905090565b60048054610d5e90611597565b80601f0160208091040260200160405190810160405280929190818152602001828054610d8a90611597565b8015610dd75780601f10610dac57610100808354040283529160200191610dd7565b820191906000526020600020905b815481529060010190602001808311610dba57829003601f168201915b505050505081565b610de7611041565b600a604051806080016040529081600082018054610e0490611597565b80601f0160208091040260200160405190810160405280929190818152602001828054610e3090611597565b8015610e7d5780601f10610e5257610100808354040283529160200191610e7d565b820191906000526020600020905b815481529060010190602001808311610e6057829003601f168201915b50505050508152602001600182018054610e9690611597565b80601f0160208091040260200160405190810160405280929190818152602001828054610ec290611597565b8015610f0f5780601f10610ee457610100808354040283529160200191610f0f565b820191906000526020600020905b815481529060010190602001808311610ef257829003601f168201915b50505050508152602001600282018054610f2890611597565b80601f0160208091040260200160405190810160405280929190818152602001828054610f5490611597565b8015610fa15780601f10610f7657610100808354040283529160200191610fa1565b820191906000526020600020905b815481529060010190602001808311610f8457829003601f168201915b50505050508152602001600382018054610fba90611597565b80601f0160208091040260200160405190810160405280929190818152602001828054610fe690611597565b80156110335780601f1061100857610100808354040283529160200191611033565b820191906000526020600020905b81548152906001019060200180831161101657829003601f168201915b505050505081525050905090565b6040518060800160405280606081526020016060815260200160608152602001606081525090565b600081519050919050565b600082825260208201905092915050565b60005b838110156110a3578082015181840152602081019050611088565b60008484015250505050565b6000601f19601f8301169050919050565b60006110cb82611069565b6110d58185611074565b93506110e5818560208601611085565b6110ee816110af565b840191505092915050565b6000602082019050818103600083015261111381846110c0565b905092915050565b600080fd5b600073ffffffffffffffffffffffffffffffffffffffff82169050919050565b600061114b82611120565b9050919050565b61115b81611140565b811461116657600080fd5b50565b60008135905061117881611152565b92915050565b6000602082840312156111945761119361111b565b5b60006111a284828501611169565b91505092915050565b6000819050919050565b6111be816111ab565b82525050565b60006020820190506111d960008301846111b5565b92915050565b6111e8816111ab565b81146111f357600080fd5b50565b600081359050611205816111df565b92915050565b6000602082840312156112215761122061111b565b5b600061122f848285016111f6565b91505092915050565b600061124382611120565b9050919050565b61125381611238565b82525050565b600060208201905061126e600083018461124a565b92915050565b61127d81611238565b811461128857600080fd5b50565b60008135905061129a81611274565b92915050565b6000602082840312156112b6576112b561111b565b5b60006112c48482850161128b565b91505092915050565b60008115159050919050565b6112e2816112cd565b82525050565b60006020820190506112fd60008301846112d9565b92915050565b6000608082019050818103600083015261131d81876110c0565b9050818103602083015261133181866110c0565b9050818103604083015261134581856110c0565b9050818103606083015261135981846110c0565b905095945050505050565b600081519050919050565b600082825260208201905092915050565b6000819050602082019050919050565b61139981611238565b82525050565b60006113ab8383611390565b60208301905092915050565b6000602082019050919050565b60006113cf82611364565b6113d9818561136f565b93506113e483611380565b8060005b838110156114155781516113fc888261139f565b9750611407836113b7565b9250506001810190506113e8565b5085935050505092915050565b6000602082019050818103600083015261143c81846113c4565b905092915050565b6000806040838503121561145b5761145a61111b565b5b600061146985828601611169565b925050602061147a858286016111f6565b9150509250929050565b600082825260208201905092915050565b60006114a082611069565b6114aa8185611484565b93506114ba818560208601611085565b6114c3816110af565b840191505092915050565b600060808301600083015184820360008601526114eb8282611495565b915050602083015184820360208601526115058282611495565b9150506040830151848203604086015261151f8282611495565b915050606083015184820360608601526115398282611495565b9150508091505092915050565b6000602082019050818103600083015261156081846114ce565b905092915050565b7f4e487b7100000000000000000000000000000000000000000000000000000000600052602260045260246000fd5b600060028204905060018216806115af57607f821691505b6020821081036115c2576115c1611568565b5b50919050565b7f4e487b7100000000000000000000000000000000000000000000000000000000600052601160045260246000fd5b6000611602826111ab565b91507fffffffffffffffffffffffffffffffffffffffffffffffffffffffffffffffff8203611634576116336115c8565b5b600182019050919050565b7f4e487b7100000000000000000000000000000000000000000000000000000000600052604160045260246000fd5b7f4e487b7100000000000000000000000000000000000000000000000000000000600052603260045260246000fdfea26469706673582212203340afb6d7aa96e77f3f4527891282f7167bcb09c79b0e8142e8735bc8ade00b64736f6c63430008110033",
  "linkReferences": {},
  "deployedLinkReferences": {}
}