{
  "_format": "hh-sol-artifact-1",
  "contractName": "Organization",
  "sourceName": "contracts/Organization.sol",
  "abi": [
    {
      "inputs": [],
      "stateMutability": "nonpayable",
      "type": "constructor"
    },
    {
      "inputs": [
        {
          "internalType": "uint256",
          "name": "",
          "type": "uint256"
        }
      ],
      "name": "campaigns",
      "outputs": [
        {
          "internalType": "address",
          "name": "",
          "type": "address"
        }
      ],
      "stateMutability": "view",
      "type": "function"
    },
    {
      "inputs": [],
      "name": "campaignsCount",
      "outputs": [
        {
          "internalType": "uint256",
          "name": "",
          "type": "uint256"
        }
      ],
      "stateMutability": "view",
      "type": "function"
    },
    {
      "inputs": [],
      "name": "contribute",
      "outputs": [],
      "stateMutability": "payable",
      "type": "function"
    },
    {
      "inputs": [
        {
          "internalType": "address",
          "name": "",
          "type": "address"
        }
      ],
      "name": "contributers",
      "outputs": [
        {
          "internalType": "bool",
          "name": "",
          "type": "bool"
        }
      ],
      "stateMutability": "view",
      "type": "function"
    },
    {
      "inputs": [],
      "name": "contributersCount",
      "outputs": [
        {
          "internalType": "uint256",
          "name": "",
          "type": "uint256"
        }
      ],
      "stateMutability": "view",
      "type": "function"
    },
    {
      "inputs": [
        {
          "internalType": "address",
          "name": "campaignAddress",
          "type": "address"
        }
      ],
      "name": "enrollInCampaign",
      "outputs": [],
      "stateMutability": "nonpayable",
      "type": "function"
    },
    {
      "inputs": [],
      "name": "getAllCampaigns",
      "outputs": [
        {
          "internalType": "address[]",
          "name": "",
          "type": "address[]"
        }
      ],
      "stateMutability": "view",
      "type": "function"
    },
    {
      "inputs": [],
      "name": "getAllContributers",
      "outputs": [
        {
          "internalType": "address[]",
          "name": "",
          "type": "address[]"
        }
      ],
      "stateMutability": "view",
      "type": "function"
    },
    {
      "inputs": [],
      "name": "getBalance",
      "outputs": [
        {
          "internalType": "uint256",
          "name": "",
          "type": "uint256"
        }
      ],
      "stateMutability": "view",
      "type": "function"
    },
    {
      "inputs": [],
      "name": "getCampaignsCount",
      "outputs": [
        {
          "internalType": "uint256",
          "name": "",
          "type": "uint256"
        }
      ],
      "stateMutability": "view",
      "type": "function"
    },
    {
      "inputs": [],
      "name": "getMinimumContribution",
      "outputs": [
        {
          "internalType": "uint256",
          "name": "",
          "type": "uint256"
        }
      ],
      "stateMutability": "view",
      "type": "function"
    },
    {
      "inputs": [],
      "name": "incrementCampaignsCount",
      "outputs": [],
      "stateMutability": "nonpayable",
      "type": "function"
    },
    {
      "inputs": [],
      "name": "minimumContribution",
      "outputs": [
        {
          "internalType": "uint256",
          "name": "",
          "type": "uint256"
        }
      ],
      "stateMutability": "view",
      "type": "function"
    },
    {
      "inputs": [],
      "name": "owner",
      "outputs": [
        {
          "internalType": "address",
          "name": "",
          "type": "address"
        }
      ],
      "stateMutability": "view",
      "type": "function"
    },
    {
      "inputs": [
        {
          "internalType": "address payable",
          "name": "recipient",
          "type": "address"
        }
      ],
      "name": "withdrawAllMoney",
      "outputs": [],
      "stateMutability": "nonpayable",
      "type": "function"
    },
    {
      "inputs": [
        {
          "internalType": "address payable",
          "name": "recipient",
          "type": "address"
        },
        {
          "internalType": "uint256",
          "name": "amount",
          "type": "uint256"
        }
      ],
      "name": "withdrawMoney",
      "outputs": [],
      "stateMutability": "nonpayable",
      "type": "function"
    }
  ],
  "bytecode": "0x608060405234801561001057600080fd5b50336000806101000a81548173ffffffffffffffffffffffffffffffffffffffff021916908373ffffffffffffffffffffffffffffffffffffffff160217905550610de7806100606000396000f3fe6080604052600436106100f35760003560e01c80638da5cb5b1161008a578063d7bb99ba11610059578063d7bb99ba14610308578063e9f146a314610312578063f274c8971461033d578063f84038b114610366576100f3565b80638da5cb5b1461025e578063937e09b114610289578063cb31ac9a146102b4578063d0e06220146102df576100f3565b806344c89b65116100c657806344c89b65146101c65780637dafd3c0146101f15780637e6253da1461020857806386cdf60414610233576100f3565b80630adec93c146100f857806312065fe014610121578063141961bc1461014c57806334b6646014610189575b600080fd5b34801561010457600080fd5b5061011f600480360381019061011a9190610985565b610391565b005b34801561012d57600080fd5b5061013661043a565b60405161014391906109cb565b60405180910390f35b34801561015857600080fd5b50610173600480360381019061016e9190610a12565b610442565b6040516101809190610a60565b60405180910390f35b34801561019557600080fd5b506101b060048036038101906101ab9190610aa7565b610481565b6040516101bd9190610aef565b60405180910390f35b3480156101d257600080fd5b506101db6104a1565b6040516101e891906109cb565b60405180910390f35b3480156101fd57600080fd5b506102066104a7565b005b34801561021457600080fd5b5061021d6104c1565b60405161022a91906109cb565b60405180910390f35b34801561023f57600080fd5b506102486104cb565b6040516102559190610bc8565b60405180910390f35b34801561026a57600080fd5b50610273610559565b6040516102809190610a60565b60405180910390f35b34801561029557600080fd5b5061029e61057d565b6040516102ab91906109cb565b60405180910390f35b3480156102c057600080fd5b506102c9610583565b6040516102d69190610bc8565b60405180910390f35b3480156102eb57600080fd5b5061030660048036038101906103019190610aa7565b610674565b005b6103106106e9565b005b34801561031e57600080fd5b50610327610799565b60405161033491906109cb565b60405180910390f35b34801561034957600080fd5b50610364600480360381019061035f9190610bea565b61079f565b005b34801561037257600080fd5b5061037b610856565b60405161038891906109cb565b60405180910390f35b60008054906101000a900473ffffffffffffffffffffffffffffffffffffffff1673ffffffffffffffffffffffffffffffffffffffff163373ffffffffffffffffffffffffffffffffffffffff16146103e957600080fd5b8073ffffffffffffffffffffffffffffffffffffffff166108fc61040b61043a565b9081150290604051600060405180830381858888f19350505050158015610436573d6000803e3d6000fd5b5050565b600047905090565b6005818154811061045257600080fd5b906000526020600020016000915054906101000a900473ffffffffffffffffffffffffffffffffffffffff1681565b60026020528060005260406000206000915054906101000a900460ff1681565b60045481565b600460008154809291906104ba90610c59565b9190505550565b6000600454905090565b6060600580548060200260200160405190810160405280929190818152602001828054801561054f57602002820191906000526020600020905b8160009054906101000a900473ffffffffffffffffffffffffffffffffffffffff1673ffffffffffffffffffffffffffffffffffffffff1681526020019060010190808311610505575b5050505050905090565b60008054906101000a900473ffffffffffffffffffffffffffffffffffffffff1681565b60015481565b6060600060035467ffffffffffffffff8111156105a3576105a2610ca1565b5b6040519080825280602002602001820160405280156105d15781602001602082028036833780820191505090505b5090506000805b60035481101561066b578281815181106105f5576105f4610cd0565b5b60200260200101518383815181106106105761060f610cd0565b5b602002602001019073ffffffffffffffffffffffffffffffffffffffff16908173ffffffffffffffffffffffffffffffffffffffff1681525050818061065590610c59565b925050808061066390610c59565b9150506105d8565b50819250505090565b60036004541061068357600080fd5b6005819080600181540180825580915050600190039060005260206000200160009091909190916101000a81548173ffffffffffffffffffffffffffffffffffffffff021916908373ffffffffffffffffffffffffffffffffffffffff16021790555050565b6107276040518060400160405280600b81526020017f5765206172652068657265000000000000000000000000000000000000000000815250610860565b6001600260003373ffffffffffffffffffffffffffffffffffffffff1673ffffffffffffffffffffffffffffffffffffffff16815260200190815260200160002060006101000a81548160ff0219169083151502179055506003600081548092919061079290610c59565b9190505550565b60035481565b60008054906101000a900473ffffffffffffffffffffffffffffffffffffffff1673ffffffffffffffffffffffffffffffffffffffff163373ffffffffffffffffffffffffffffffffffffffff16146107f757600080fd5b6107ff61043a565b81111561080b57600080fd5b8173ffffffffffffffffffffffffffffffffffffffff166108fc829081150290604051600060405180830381858888f19350505050158015610851573d6000803e3d6000fd5b505050565b6000600154905090565b6108f6816040516024016108749190610d8f565b6040516020818303038152906040527f41304fac000000000000000000000000000000000000000000000000000000007bffffffffffffffffffffffffffffffffffffffffffffffffffffffff19166020820180517bffffffffffffffffffffffffffffffffffffffffffffffffffffffff83818316178352505050506108f9565b50565b60008151905060006a636f6e736f6c652e6c6f679050602083016000808483855afa5050505050565b600080fd5b600073ffffffffffffffffffffffffffffffffffffffff82169050919050565b600061095282610927565b9050919050565b61096281610947565b811461096d57600080fd5b50565b60008135905061097f81610959565b92915050565b60006020828403121561099b5761099a610922565b5b60006109a984828501610970565b91505092915050565b6000819050919050565b6109c5816109b2565b82525050565b60006020820190506109e060008301846109bc565b92915050565b6109ef816109b2565b81146109fa57600080fd5b50565b600081359050610a0c816109e6565b92915050565b600060208284031215610a2857610a27610922565b5b6000610a36848285016109fd565b91505092915050565b6000610a4a82610927565b9050919050565b610a5a81610a3f565b82525050565b6000602082019050610a756000830184610a51565b92915050565b610a8481610a3f565b8114610a8f57600080fd5b50565b600081359050610aa181610a7b565b92915050565b600060208284031215610abd57610abc610922565b5b6000610acb84828501610a92565b91505092915050565b60008115159050919050565b610ae981610ad4565b82525050565b6000602082019050610b046000830184610ae0565b92915050565b600081519050919050565b600082825260208201905092915050565b6000819050602082019050919050565b610b3f81610a3f565b82525050565b6000610b518383610b36565b60208301905092915050565b6000602082019050919050565b6000610b7582610b0a565b610b7f8185610b15565b9350610b8a83610b26565b8060005b83811015610bbb578151610ba28882610b45565b9750610bad83610b5d565b925050600181019050610b8e565b5085935050505092915050565b60006020820190508181036000830152610be28184610b6a565b905092915050565b60008060408385031215610c0157610c00610922565b5b6000610c0f85828601610970565b9250506020610c20858286016109fd565b9150509250929050565b7f4e487b7100000000000000000000000000000000000000000000000000000000600052601160045260246000fd5b6000610c64826109b2565b91507fffffffffffffffffffffffffffffffffffffffffffffffffffffffffffffffff8203610c9657610c95610c2a565b5b600182019050919050565b7f4e487b7100000000000000000000000000000000000000000000000000000000600052604160045260246000fd5b7f4e487b7100000000000000000000000000000000000000000000000000000000600052603260045260246000fd5b600081519050919050565b600082825260208201905092915050565b60005b83811015610d39578082015181840152602081019050610d1e565b60008484015250505050565b6000601f19601f8301169050919050565b6000610d6182610cff565b610d6b8185610d0a565b9350610d7b818560208601610d1b565b610d8481610d45565b840191505092915050565b60006020820190508181036000830152610da98184610d56565b90509291505056fea2646970667358221220b6c92c17accc30cb7aeaedae7f14b7ec482fdd16636e9c69a46a49a4c8436ee764736f6c63430008110033",
  "linkReferences": {},
  "deployedLinkReferences": {}
}