{"contracts/OrganizationFactory.sol":{"OrganizationFactory":{"abi":[{"inputs":[{"internalType":"string","name":"name","type":"string"},{"internalType":"string","name":"description","type":"string"},{"internalType":"string","name":"website","type":"string"},{"internalType":"string","name":"logo","type":"string"}],"name":"createOrganization","outputs":[],"stateMutability":"nonpayable","type":"function"},{"inputs":[],"name":"getAllOrganizations","outputs":[{"internalType":"address[]","name":"","type":"address[]"}],"stateMutability":"view","type":"function"},{"inputs":[{"internalType":"uint256","name":"","type":"uint256"}],"name":"organizations","outputs":[{"internalType":"address","name":"","type":"address"}],"stateMutability":"view","type":"function"}],"devdoc":{"kind":"dev","methods":{},"version":1},"evm":{"bytecode":{"linkReferences":{},"object":"608060405234801561001057600080fd5b50612229806100206000396000f3fe60806040523480156200001157600080fd5b5060043610620000465760003560e01c8063086ed938146200004b578063c791c83d146200006d578063e792dd8a146200008d575b600080fd5b62000055620000c3565b60405162000064919062000352565b60405180910390f35b6200008b6004803603810190620000859190620004ec565b62000153565b005b620000ab6004803603810190620000a5919062000615565b62000202565b604051620000ba919062000658565b60405180910390f35b606060008054806020026020016040519081016040528092919081815260200182805480156200014957602002820191906000526020600020905b8160009054906101000a900473ffffffffffffffffffffffffffffffffffffffff1673ffffffffffffffffffffffffffffffffffffffff1681526020019060010190808311620000fe575b5050505050905090565b60008484848433604051620001689062000242565b62000178959493929190620006fe565b604051809103906000f08015801562000195573d6000803e3d6000fd5b5090506000819080600181540180825580915050600190039060005260206000200160009091909190916101000a81548173ffffffffffffffffffffffffffffffffffffffff021916908373ffffffffffffffffffffffffffffffffffffffff1602179055505050505050565b600081815481106200021357600080fd5b906000526020600020016000915054906101000a900473ffffffffffffffffffffffffffffffffffffffff1681565b611a7c806200077883390190565b600081519050919050565b600082825260208201905092915050565b6000819050602082019050919050565b600073ffffffffffffffffffffffffffffffffffffffff82169050919050565b6000620002a9826200027c565b9050919050565b620002bb816200029c565b82525050565b6000620002cf8383620002b0565b60208301905092915050565b6000602082019050919050565b6000620002f58262000250565b6200030181856200025b565b93506200030e836200026c565b8060005b8381101562000345578151620003298882620002c1565b97506200033683620002db565b92505060018101905062000312565b5085935050505092915050565b600060208201905081810360008301526200036e8184620002e8565b905092915050565b6000604051905090565b600080fd5b600080fd5b600080fd5b600080fd5b6000601f19601f8301169050919050565b7f4e487b7100000000000000000000000000000000000000000000000000000000600052604160045260246000fd5b620003df8262000394565b810181811067ffffffffffffffff82111715620004015762000400620003a5565b5b80604052505050565b60006200041662000376565b9050620004248282620003d4565b919050565b600067ffffffffffffffff821115620004475762000446620003a5565b5b620004528262000394565b9050602081019050919050565b82818337600083830152505050565b6000620004856200047f8462000429565b6200040a565b905082815260208101848484011115620004a457620004a36200038f565b5b620004b18482856200045f565b509392505050565b600082601f830112620004d157620004d06200038a565b5b8135620004e38482602086016200046e565b91505092915050565b6000806000806080858703121562000509576200050862000380565b5b600085013567ffffffffffffffff8111156200052a576200052962000385565b5b6200053887828801620004b9565b945050602085013567ffffffffffffffff8111156200055c576200055b62000385565b5b6200056a87828801620004b9565b935050604085013567ffffffffffffffff8111156200058e576200058d62000385565b5b6200059c87828801620004b9565b925050606085013567ffffffffffffffff811115620005c057620005bf62000385565b5b620005ce87828801620004b9565b91505092959194509250565b6000819050919050565b620005ef81620005da565b8114620005fb57600080fd5b50565b6000813590506200060f81620005e4565b92915050565b6000602082840312156200062e576200062d62000380565b5b60006200063e84828501620005fe565b91505092915050565b62000652816200029c565b82525050565b60006020820190506200066f600083018462000647565b92915050565b600081519050919050565b600082825260208201905092915050565b60005b83811015620006b157808201518184015260208101905062000694565b60008484015250505050565b6000620006ca8262000675565b620006d6818562000680565b9350620006e881856020860162000691565b620006f38162000394565b840191505092915050565b600060a08201905081810360008301526200071a8188620006bd565b90508181036020830152620007308187620006bd565b90508181036040830152620007468186620006bd565b905081810360608301526200075c8185620006bd565b90506200076d608083018462000647565b969550505050505056fe60806040523480156200001157600080fd5b5060405162001a7c38038062001a7c8339818101604052810190620000379190620002c2565b806000806101000a81548173ffffffffffffffffffffffffffffffffffffffff021916908373ffffffffffffffffffffffffffffffffffffffff160217905550846001908162000088919062000611565b5083600290816200009a919062000611565b508260039081620000ac919062000611565b508160049081620000be919062000611565b505050505050620006f8565b6000604051905090565b600080fd5b600080fd5b600080fd5b600080fd5b6000601f19601f8301169050919050565b7f4e487b7100000000000000000000000000000000000000000000000000000000600052604160045260246000fd5b6200013382620000e8565b810181811067ffffffffffffffff82111715620001555762000154620000f9565b5b80604052505050565b60006200016a620000ca565b905062000178828262000128565b919050565b600067ffffffffffffffff8211156200019b576200019a620000f9565b5b620001a682620000e8565b9050602081019050919050565b60005b83811015620001d3578082015181840152602081019050620001b6565b60008484015250505050565b6000620001f6620001f0846200017d565b6200015e565b905082815260208101848484011115620002155762000214620000e3565b5b62000222848285620001b3565b509392505050565b600082601f830112620002425762000241620000de565b5b815162000254848260208601620001df565b91505092915050565b600073ffffffffffffffffffffffffffffffffffffffff82169050919050565b60006200028a826200025d565b9050919050565b6200029c816200027d565b8114620002a857600080fd5b50565b600081519050620002bc8162000291565b92915050565b600080600080600060a08688031215620002e157620002e0620000d4565b5b600086015167ffffffffffffffff811115620003025762000301620000d9565b5b62000310888289016200022a565b955050602086015167ffffffffffffffff811115620003345762000333620000d9565b5b62000342888289016200022a565b945050604086015167ffffffffffffffff811115620003665762000365620000d9565b5b62000374888289016200022a565b935050606086015167ffffffffffffffff811115620003985762000397620000d9565b5b620003a6888289016200022a565b9250506080620003b988828901620002ab565b9150509295509295909350565b600081519050919050565b7f4e487b7100000000000000000000000000000000000000000000000000000000600052602260045260246000fd5b600060028204905060018216806200041957607f821691505b6020821081036200042f576200042e620003d1565b5b50919050565b60008190508160005260206000209050919050565b60006020601f8301049050919050565b600082821b905092915050565b600060088302620004997fffffffffffffffffffffffffffffffffffffffffffffffffffffffffffffffff826200045a565b620004a586836200045a565b95508019841693508086168417925050509392505050565b6000819050919050565b6000819050919050565b6000620004f2620004ec620004e684620004bd565b620004c7565b620004bd565b9050919050565b6000819050919050565b6200050e83620004d1565b620005266200051d82620004f9565b84845462000467565b825550505050565b600090565b6200053d6200052e565b6200054a81848462000503565b505050565b5b8181101562000572576200056660008262000533565b60018101905062000550565b5050565b601f821115620005c1576200058b8162000435565b62000596846200044a565b81016020851015620005a6578190505b620005be620005b5856200044a565b8301826200054f565b50505b505050565b600082821c905092915050565b6000620005e660001984600802620005c6565b1980831691505092915050565b6000620006018383620005d3565b9150826002028217905092915050565b6200061c82620003c6565b67ffffffffffffffff811115620006385762000637620000f9565b5b62000644825462000400565b6200065182828562000576565b600060209050601f83116001811462000689576000841562000674578287015190505b620006808582620005f3565b865550620006f0565b601f198416620006998662000435565b60005b82811015620006c3578489015182556001820191506020850194506020810190506200069c565b86831015620006e35784890151620006df601f891682620005d3565b8355505b6001600288020188555050505b505050505050565b61137480620007086000396000f3fe60806040526004361061012a5760003560e01c80638da5cb5b116100ab578063d7bb99ba1161006f578063d7bb99ba146103c0578063e9f146a3146103ca578063f274c897146103f5578063f84038b11461041e578063fb7f21eb14610449578063fbbf93a0146104745761012a565b80638da5cb5b146102eb578063937e09b114610316578063beb0a41614610341578063cb31ac9a1461036c578063d0e06220146103975761012a565b806344c89b65116100f257806344c89b65146102285780637284e416146102535780637dafd3c01461027e5780637e6253da1461029557806386cdf604146102c05761012a565b806306fdde031461012f5780630adec93c1461015a57806312065fe014610183578063141961bc146101ae57806334b66460146101eb575b600080fd5b34801561013b57600080fd5b506101446104a4565b6040516101519190610e62565b60405180910390f35b34801561016657600080fd5b50610181600480360381019061017c9190610ee7565b610532565b005b34801561018f57600080fd5b506101986105db565b6040516101a59190610f2d565b60405180910390f35b3480156101ba57600080fd5b506101d560048036038101906101d09190610f74565b6105e3565b6040516101e29190610fc2565b60405180910390f35b3480156101f757600080fd5b50610212600480360381019061020d9190611009565b610622565b60405161021f9190611051565b60405180910390f35b34801561023457600080fd5b5061023d610642565b60405161024a9190610f2d565b60405180910390f35b34801561025f57600080fd5b50610268610648565b6040516102759190610e62565b60405180910390f35b34801561028a57600080fd5b506102936106d6565b005b3480156102a157600080fd5b506102aa6106f0565b6040516102b79190610f2d565b60405180910390f35b3480156102cc57600080fd5b506102d56106fa565b6040516102e2919061112a565b60405180910390f35b3480156102f757600080fd5b50610300610788565b60405161030d9190610fc2565b60405180910390f35b34801561032257600080fd5b5061032b6107ac565b6040516103389190610f2d565b60405180910390f35b34801561034d57600080fd5b506103566107b2565b6040516103639190610e62565b60405180910390f35b34801561037857600080fd5b50610381610840565b60405161038e919061112a565b60405180910390f35b3480156103a357600080fd5b506103be60048036038101906103b99190611009565b610931565b005b6103c86109a6565b005b3480156103d657600080fd5b506103df610a18565b6040516103ec9190610f2d565b60405180910390f35b34801561040157600080fd5b5061041c6004803603810190610417919061114c565b610a1e565b005b34801561042a57600080fd5b50610433610ad5565b6040516104409190610f2d565b60405180910390f35b34801561045557600080fd5b5061045e610adf565b60405161046b9190610e62565b60405180910390f35b34801561048057600080fd5b50610489610b6d565b60405161049b9695949392919061118c565b60405180910390f35b600180546104b190611238565b80601f01602080910402602001604051908101604052809291908181526020018280546104dd90611238565b801561052a5780601f106104ff5761010080835404028352916020019161052a565b820191906000526020600020905b81548152906001019060200180831161050d57829003601f168201915b505050505081565b60008054906101000a900473ffffffffffffffffffffffffffffffffffffffff1673ffffffffffffffffffffffffffffffffffffffff163373ffffffffffffffffffffffffffffffffffffffff161461058a57600080fd5b8073ffffffffffffffffffffffffffffffffffffffff166108fc6105ac6105db565b9081150290604051600060405180830381858888f193505050501580156105d7573d6000803e3d6000fd5b5050565b600047905090565b600981815481106105f357600080fd5b906000526020600020016000915054906101000a900473ffffffffffffffffffffffffffffffffffffffff1681565b60066020528060005260406000206000915054906101000a900460ff1681565b60085481565b6002805461065590611238565b80601f016020809104026020016040519081016040528092919081815260200182805461068190611238565b80156106ce5780601f106106a3576101008083540402835291602001916106ce565b820191906000526020600020905b8154815290600101906020018083116106b157829003601f168201915b505050505081565b600860008154809291906106e990611298565b9190505550565b6000600854905090565b6060600980548060200260200160405190810160405280929190818152602001828054801561077e57602002820191906000526020600020905b8160009054906101000a900473ffffffffffffffffffffffffffffffffffffffff1673ffffffffffffffffffffffffffffffffffffffff1681526020019060010190808311610734575b5050505050905090565b60008054906101000a900473ffffffffffffffffffffffffffffffffffffffff1681565b60055481565b600380546107bf90611238565b80601f01602080910402602001604051908101604052809291908181526020018280546107eb90611238565b80156108385780601f1061080d57610100808354040283529160200191610838565b820191906000526020600020905b81548152906001019060200180831161081b57829003601f168201915b505050505081565b6060600060075467ffffffffffffffff8111156108605761085f6112e0565b5b60405190808252806020026020018201604052801561088e5781602001602082028036833780820191505090505b5090506000805b600754811015610928578281815181106108b2576108b161130f565b5b60200260200101518383815181106108cd576108cc61130f565b5b602002602001019073ffffffffffffffffffffffffffffffffffffffff16908173ffffffffffffffffffffffffffffffffffffffff1681525050818061091290611298565b925050808061092090611298565b915050610895565b50819250505090565b60036008541061094057600080fd5b6009819080600181540180825580915050600190039060005260206000200160009091909190916101000a81548173ffffffffffffffffffffffffffffffffffffffff021916908373ffffffffffffffffffffffffffffffffffffffff16021790555050565b6001600660003373ffffffffffffffffffffffffffffffffffffffff1673ffffffffffffffffffffffffffffffffffffffff16815260200190815260200160002060006101000a81548160ff02191690831515021790555060076000815480929190610a1190611298565b9190505550565b60075481565b60008054906101000a900473ffffffffffffffffffffffffffffffffffffffff1673ffffffffffffffffffffffffffffffffffffffff163373ffffffffffffffffffffffffffffffffffffffff1614610a7657600080fd5b610a7e6105db565b811115610a8a57600080fd5b8173ffffffffffffffffffffffffffffffffffffffff166108fc829081150290604051600060405180830381858888f19350505050158015610ad0573d6000803e3d6000fd5b505050565b6000600554905090565b60048054610aec90611238565b80601f0160208091040260200160405190810160405280929190818152602001828054610b1890611238565b8015610b655780601f10610b3a57610100808354040283529160200191610b65565b820191906000526020600020905b815481529060010190602001808311610b4857829003601f168201915b505050505081565b6060806060806000806001600260036004610b866105db565b610b8e610ad5565b858054610b9a90611238565b80601f0160208091040260200160405190810160405280929190818152602001828054610bc690611238565b8015610c135780601f10610be857610100808354040283529160200191610c13565b820191906000526020600020905b815481529060010190602001808311610bf657829003601f168201915b50505050509550848054610c2690611238565b80601f0160208091040260200160405190810160405280929190818152602001828054610c5290611238565b8015610c9f5780601f10610c7457610100808354040283529160200191610c9f565b820191906000526020600020905b815481529060010190602001808311610c8257829003601f168201915b50505050509450838054610cb290611238565b80601f0160208091040260200160405190810160405280929190818152602001828054610cde90611238565b8015610d2b5780601f10610d0057610100808354040283529160200191610d2b565b820191906000526020600020905b815481529060010190602001808311610d0e57829003601f168201915b50505050509350828054610d3e90611238565b80601f0160208091040260200160405190810160405280929190818152602001828054610d6a90611238565b8015610db75780601f10610d8c57610100808354040283529160200191610db7565b820191906000526020600020905b815481529060010190602001808311610d9a57829003601f168201915b50505050509250955095509550955095509550909192939495565b600081519050919050565b600082825260208201905092915050565b60005b83811015610e0c578082015181840152602081019050610df1565b60008484015250505050565b6000601f19601f8301169050919050565b6000610e3482610dd2565b610e3e8185610ddd565b9350610e4e818560208601610dee565b610e5781610e18565b840191505092915050565b60006020820190508181036000830152610e7c8184610e29565b905092915050565b600080fd5b600073ffffffffffffffffffffffffffffffffffffffff82169050919050565b6000610eb482610e89565b9050919050565b610ec481610ea9565b8114610ecf57600080fd5b50565b600081359050610ee181610ebb565b92915050565b600060208284031215610efd57610efc610e84565b5b6000610f0b84828501610ed2565b91505092915050565b6000819050919050565b610f2781610f14565b82525050565b6000602082019050610f426000830184610f1e565b92915050565b610f5181610f14565b8114610f5c57600080fd5b50565b600081359050610f6e81610f48565b92915050565b600060208284031215610f8a57610f89610e84565b5b6000610f9884828501610f5f565b91505092915050565b6000610fac82610e89565b9050919050565b610fbc81610fa1565b82525050565b6000602082019050610fd76000830184610fb3565b92915050565b610fe681610fa1565b8114610ff157600080fd5b50565b60008135905061100381610fdd565b92915050565b60006020828403121561101f5761101e610e84565b5b600061102d84828501610ff4565b91505092915050565b60008115159050919050565b61104b81611036565b82525050565b60006020820190506110666000830184611042565b92915050565b600081519050919050565b600082825260208201905092915050565b6000819050602082019050919050565b6110a181610fa1565b82525050565b60006110b38383611098565b60208301905092915050565b6000602082019050919050565b60006110d78261106c565b6110e18185611077565b93506110ec83611088565b8060005b8381101561111d57815161110488826110a7565b975061110f836110bf565b9250506001810190506110f0565b5085935050505092915050565b6000602082019050818103600083015261114481846110cc565b905092915050565b6000806040838503121561116357611162610e84565b5b600061117185828601610ed2565b925050602061118285828601610f5f565b9150509250929050565b600060c08201905081810360008301526111a68189610e29565b905081810360208301526111ba8188610e29565b905081810360408301526111ce8187610e29565b905081810360608301526111e28186610e29565b90506111f16080830185610f1e565b6111fe60a0830184610f1e565b979650505050505050565b7f4e487b7100000000000000000000000000000000000000000000000000000000600052602260045260246000fd5b6000600282049050600182168061125057607f821691505b60208210810361126357611262611209565b5b50919050565b7f4e487b7100000000000000000000000000000000000000000000000000000000600052601160045260246000fd5b60006112a382610f14565b91507fffffffffffffffffffffffffffffffffffffffffffffffffffffffffffffffff82036112d5576112d4611269565b5b600182019050919050565b7f4e487b7100000000000000000000000000000000000000000000000000000000600052604160045260246000fd5b7f4e487b7100000000000000000000000000000000000000000000000000000000600052603260045260246000fdfea26469706673582212201eb91b06a47856b31f73c4124c84b089075a3039f3d6f14985f0ffc4b6ccfe1664736f6c63430008110033a26469706673582212200a4bf2e80ca960a5270c2c9c7e0f9812ad905485cf7a71e9019f10a9c1c7474564736f6c63430008110033","opcodes":"PUSH1 0x80 PUSH1 0x40 MSTORE CALLVALUE DUP1 ISZERO PUSH2 0x10 JUMPI PUSH1 0x0 DUP1 REVERT JUMPDEST POP PUSH2 0x2229 DUP1 PUSH2 0x20 PUSH1 0x0 CODECOPY PUSH1 0x0 RETURN INVALID PUSH1 0x80 PUSH1 0x40 MSTORE CALLVALUE DUP1 ISZERO PUSH3 0x11 JUMPI PUSH1 0x0 DUP1 REVERT JUMPDEST POP PUSH1 0x4 CALLDATASIZE LT PUSH3 0x46 JUMPI PUSH1 0x0 CALLDATALOAD PUSH1 0xE0 SHR DUP1 PUSH4 0x86ED938 EQ PUSH3 0x4B JUMPI DUP1 PUSH4 0xC791C83D EQ PUSH3 0x6D JUMPI DUP1 PUSH4 0xE792DD8A EQ PUSH3 0x8D JUMPI JUMPDEST PUSH1 0x0 DUP1 REVERT JUMPDEST PUSH3 0x55 PUSH3 0xC3 JUMP JUMPDEST PUSH1 0x40 MLOAD PUSH3 0x64 SWAP2 SWAP1 PUSH3 0x352 JUMP JUMPDEST PUSH1 0x40 MLOAD DUP1 SWAP2 SUB SWAP1 RETURN JUMPDEST PUSH3 0x8B PUSH1 0x4 DUP1 CALLDATASIZE SUB DUP2 ADD SWAP1 PUSH3 0x85 SWAP2 SWAP1 PUSH3 0x4EC JUMP JUMPDEST PUSH3 0x153 JUMP JUMPDEST STOP JUMPDEST PUSH3 0xAB PUSH1 0x4 DUP1 CALLDATASIZE SUB DUP2 ADD SWAP1 PUSH3 0xA5 SWAP2 SWAP1 PUSH3 0x615 JUMP JUMPDEST PUSH3 0x202 JUMP JUMPDEST PUSH1 0x40 MLOAD PUSH3 0xBA SWAP2 SWAP1 PUSH3 0x658 JUMP JUMPDEST PUSH1 0x40 MLOAD DUP1 SWAP2 SUB SWAP1 RETURN JUMPDEST PUSH1 0x60 PUSH1 0x0 DUP1 SLOAD DUP1 PUSH1 0x20 MUL PUSH1 0x20 ADD PUSH1 0x40 MLOAD SWAP1 DUP2 ADD PUSH1 0x40 MSTORE DUP1 SWAP3 SWAP2 SWAP1 DUP2 DUP2 MSTORE PUSH1 0x20 ADD DUP3 DUP1 SLOAD DUP1 ISZERO PUSH3 0x149 JUMPI PUSH1 0x20 MUL DUP3 ADD SWAP2 SWAP1 PUSH1 0x0 MSTORE PUSH1 0x20 PUSH1 0x0 KECCAK256 SWAP1 JUMPDEST DUP2 PUSH1 0x0 SWAP1 SLOAD SWAP1 PUSH2 0x100 EXP SWAP1 DIV PUSH20 0xFFFFFFFFFFFFFFFFFFFFFFFFFFFFFFFFFFFFFFFF AND PUSH20 0xFFFFFFFFFFFFFFFFFFFFFFFFFFFFFFFFFFFFFFFF AND DUP2 MSTORE PUSH1 0x20 ADD SWAP1 PUSH1 0x1 ADD SWAP1 DUP1 DUP4 GT PUSH3 0xFE JUMPI JUMPDEST POP POP POP POP POP SWAP1 POP SWAP1 JUMP JUMPDEST PUSH1 0x0 DUP5 DUP5 DUP5 DUP5 CALLER PUSH1 0x40 MLOAD PUSH3 0x168 SWAP1 PUSH3 0x242 JUMP JUMPDEST PUSH3 0x178 SWAP6 SWAP5 SWAP4 SWAP3 SWAP2 SWAP1 PUSH3 0x6FE JUMP JUMPDEST PUSH1 0x40 MLOAD DUP1 SWAP2 SUB SWAP1 PUSH1 0x0 CREATE DUP1 ISZERO DUP1 ISZERO PUSH3 0x195 JUMPI RETURNDATASIZE PUSH1 0x0 DUP1 RETURNDATACOPY RETURNDATASIZE PUSH1 0x0 REVERT JUMPDEST POP SWAP1 POP PUSH1 0x0 DUP2 SWAP1 DUP1 PUSH1 0x1 DUP2 SLOAD ADD DUP1 DUP3 SSTORE DUP1 SWAP2 POP POP PUSH1 0x1 SWAP1 SUB SWAP1 PUSH1 0x0 MSTORE PUSH1 0x20 PUSH1 0x0 KECCAK256 ADD PUSH1 0x0 SWAP1 SWAP2 SWAP1 SWAP2 SWAP1 SWAP2 PUSH2 0x100 EXP DUP2 SLOAD DUP2 PUSH20 0xFFFFFFFFFFFFFFFFFFFFFFFFFFFFFFFFFFFFFFFF MUL NOT AND SWAP1 DUP4 PUSH20 0xFFFFFFFFFFFFFFFFFFFFFFFFFFFFFFFFFFFFFFFF AND MUL OR SWAP1 SSTORE POP POP POP POP POP POP JUMP JUMPDEST PUSH1 0x0 DUP2 DUP2 SLOAD DUP2 LT PUSH3 0x213 JUMPI PUSH1 0x0 DUP1 REVERT JUMPDEST SWAP1 PUSH1 0x0 MSTORE PUSH1 0x20 PUSH1 0x0 KECCAK256 ADD PUSH1 0x0 SWAP2 POP SLOAD SWAP1 PUSH2 0x100 EXP SWAP1 DIV PUSH20 0xFFFFFFFFFFFFFFFFFFFFFFFFFFFFFFFFFFFFFFFF AND DUP2 JUMP JUMPDEST PUSH2 0x1A7C DUP1 PUSH3 0x778 DUP4 CODECOPY ADD SWAP1 JUMP JUMPDEST PUSH1 0x0 DUP2 MLOAD SWAP1 POP SWAP2 SWAP1 POP JUMP JUMPDEST PUSH1 0x0 DUP3 DUP3 MSTORE PUSH1 0x20 DUP3 ADD SWAP1 POP SWAP3 SWAP2 POP POP JUMP JUMPDEST PUSH1 0x0 DUP2 SWAP1 POP PUSH1 0x20 DUP3 ADD SWAP1 POP SWAP2 SWAP1 POP JUMP JUMPDEST PUSH1 0x0 PUSH20 0xFFFFFFFFFFFFFFFFFFFFFFFFFFFFFFFFFFFFFFFF DUP3 AND SWAP1 POP SWAP2 SWAP1 POP JUMP JUMPDEST PUSH1 0x0 PUSH3 0x2A9 DUP3 PUSH3 0x27C JUMP JUMPDEST SWAP1 POP SWAP2 SWAP1 POP JUMP JUMPDEST PUSH3 0x2BB DUP2 PUSH3 0x29C JUMP JUMPDEST DUP3 MSTORE POP POP JUMP JUMPDEST PUSH1 0x0 PUSH3 0x2CF DUP4 DUP4 PUSH3 0x2B0 JUMP JUMPDEST PUSH1 0x20 DUP4 ADD SWAP1 POP SWAP3 SWAP2 POP POP JUMP JUMPDEST PUSH1 0x0 PUSH1 0x20 DUP3 ADD SWAP1 POP SWAP2 SWAP1 POP JUMP JUMPDEST PUSH1 0x0 PUSH3 0x2F5 DUP3 PUSH3 0x250 JUMP JUMPDEST PUSH3 0x301 DUP2 DUP6 PUSH3 0x25B JUMP JUMPDEST SWAP4 POP PUSH3 0x30E DUP4 PUSH3 0x26C JUMP JUMPDEST DUP1 PUSH1 0x0 JUMPDEST DUP4 DUP2 LT ISZERO PUSH3 0x345 JUMPI DUP2 MLOAD PUSH3 0x329 DUP9 DUP3 PUSH3 0x2C1 JUMP JUMPDEST SWAP8 POP PUSH3 0x336 DUP4 PUSH3 0x2DB JUMP JUMPDEST SWAP3 POP POP PUSH1 0x1 DUP2 ADD SWAP1 POP PUSH3 0x312 JUMP JUMPDEST POP DUP6 SWAP4 POP POP POP POP SWAP3 SWAP2 POP POP JUMP JUMPDEST PUSH1 0x0 PUSH1 0x20 DUP3 ADD SWAP1 POP DUP2 DUP2 SUB PUSH1 0x0 DUP4 ADD MSTORE PUSH3 0x36E DUP2 DUP5 PUSH3 0x2E8 JUMP JUMPDEST SWAP1 POP SWAP3 SWAP2 POP POP JUMP JUMPDEST PUSH1 0x0 PUSH1 0x40 MLOAD SWAP1 POP SWAP1 JUMP JUMPDEST PUSH1 0x0 DUP1 REVERT JUMPDEST PUSH1 0x0 DUP1 REVERT JUMPDEST PUSH1 0x0 DUP1 REVERT JUMPDEST PUSH1 0x0 DUP1 REVERT JUMPDEST PUSH1 0x0 PUSH1 0x1F NOT PUSH1 0x1F DUP4 ADD AND SWAP1 POP SWAP2 SWAP1 POP JUMP JUMPDEST PUSH32 0x4E487B7100000000000000000000000000000000000000000000000000000000 PUSH1 0x0 MSTORE PUSH1 0x41 PUSH1 0x4 MSTORE PUSH1 0x24 PUSH1 0x0 REVERT JUMPDEST PUSH3 0x3DF DUP3 PUSH3 0x394 JUMP JUMPDEST DUP2 ADD DUP2 DUP2 LT PUSH8 0xFFFFFFFFFFFFFFFF DUP3 GT OR ISZERO PUSH3 0x401 JUMPI PUSH3 0x400 PUSH3 0x3A5 JUMP JUMPDEST JUMPDEST DUP1 PUSH1 0x40 MSTORE POP POP POP JUMP JUMPDEST PUSH1 0x0 PUSH3 0x416 PUSH3 0x376 JUMP JUMPDEST SWAP1 POP PUSH3 0x424 DUP3 DUP3 PUSH3 0x3D4 JUMP JUMPDEST SWAP2 SWAP1 POP JUMP JUMPDEST PUSH1 0x0 PUSH8 0xFFFFFFFFFFFFFFFF DUP3 GT ISZERO PUSH3 0x447 JUMPI PUSH3 0x446 PUSH3 0x3A5 JUMP JUMPDEST JUMPDEST PUSH3 0x452 DUP3 PUSH3 0x394 JUMP JUMPDEST SWAP1 POP PUSH1 0x20 DUP2 ADD SWAP1 POP SWAP2 SWAP1 POP JUMP JUMPDEST DUP3 DUP2 DUP4 CALLDATACOPY PUSH1 0x0 DUP4 DUP4 ADD MSTORE POP POP POP JUMP JUMPDEST PUSH1 0x0 PUSH3 0x485 PUSH3 0x47F DUP5 PUSH3 0x429 JUMP JUMPDEST PUSH3 0x40A JUMP JUMPDEST SWAP1 POP DUP3 DUP2 MSTORE PUSH1 0x20 DUP2 ADD DUP5 DUP5 DUP5 ADD GT ISZERO PUSH3 0x4A4 JUMPI PUSH3 0x4A3 PUSH3 0x38F JUMP JUMPDEST JUMPDEST PUSH3 0x4B1 DUP5 DUP3 DUP6 PUSH3 0x45F JUMP JUMPDEST POP SWAP4 SWAP3 POP POP POP JUMP JUMPDEST PUSH1 0x0 DUP3 PUSH1 0x1F DUP4 ADD SLT PUSH3 0x4D1 JUMPI PUSH3 0x4D0 PUSH3 0x38A JUMP JUMPDEST JUMPDEST DUP2 CALLDATALOAD PUSH3 0x4E3 DUP5 DUP3 PUSH1 0x20 DUP7 ADD PUSH3 0x46E JUMP JUMPDEST SWAP2 POP POP SWAP3 SWAP2 POP POP JUMP JUMPDEST PUSH1 0x0 DUP1 PUSH1 0x0 DUP1 PUSH1 0x80 DUP6 DUP8 SUB SLT ISZERO PUSH3 0x509 JUMPI PUSH3 0x508 PUSH3 0x380 JUMP JUMPDEST JUMPDEST PUSH1 0x0 DUP6 ADD CALLDATALOAD PUSH8 0xFFFFFFFFFFFFFFFF DUP2 GT ISZERO PUSH3 0x52A JUMPI PUSH3 0x529 PUSH3 0x385 JUMP JUMPDEST JUMPDEST PUSH3 0x538 DUP8 DUP3 DUP9 ADD PUSH3 0x4B9 JUMP JUMPDEST SWAP5 POP POP PUSH1 0x20 DUP6 ADD CALLDATALOAD PUSH8 0xFFFFFFFFFFFFFFFF DUP2 GT ISZERO PUSH3 0x55C JUMPI PUSH3 0x55B PUSH3 0x385 JUMP JUMPDEST JUMPDEST PUSH3 0x56A DUP8 DUP3 DUP9 ADD PUSH3 0x4B9 JUMP JUMPDEST SWAP4 POP POP PUSH1 0x40 DUP6 ADD CALLDATALOAD PUSH8 0xFFFFFFFFFFFFFFFF DUP2 GT ISZERO PUSH3 0x58E JUMPI PUSH3 0x58D PUSH3 0x385 JUMP JUMPDEST JUMPDEST PUSH3 0x59C DUP8 DUP3 DUP9 ADD PUSH3 0x4B9 JUMP JUMPDEST SWAP3 POP POP PUSH1 0x60 DUP6 ADD CALLDATALOAD PUSH8 0xFFFFFFFFFFFFFFFF DUP2 GT ISZERO PUSH3 0x5C0 JUMPI PUSH3 0x5BF PUSH3 0x385 JUMP JUMPDEST JUMPDEST PUSH3 0x5CE DUP8 DUP3 DUP9 ADD PUSH3 0x4B9 JUMP JUMPDEST SWAP2 POP POP SWAP3 SWAP6 SWAP2 SWAP5 POP SWAP3 POP JUMP JUMPDEST PUSH1 0x0 DUP2 SWAP1 POP SWAP2 SWAP1 POP JUMP JUMPDEST PUSH3 0x5EF DUP2 PUSH3 0x5DA JUMP JUMPDEST DUP2 EQ PUSH3 0x5FB JUMPI PUSH1 0x0 DUP1 REVERT JUMPDEST POP JUMP JUMPDEST PUSH1 0x0 DUP2 CALLDATALOAD SWAP1 POP PUSH3 0x60F DUP2 PUSH3 0x5E4 JUMP JUMPDEST SWAP3 SWAP2 POP POP JUMP JUMPDEST PUSH1 0x0 PUSH1 0x20 DUP3 DUP5 SUB SLT ISZERO PUSH3 0x62E JUMPI PUSH3 0x62D PUSH3 0x380 JUMP JUMPDEST JUMPDEST PUSH1 0x0 PUSH3 0x63E DUP5 DUP3 DUP6 ADD PUSH3 0x5FE JUMP JUMPDEST SWAP2 POP POP SWAP3 SWAP2 POP POP JUMP JUMPDEST PUSH3 0x652 DUP2 PUSH3 0x29C JUMP JUMPDEST DUP3 MSTORE POP POP JUMP JUMPDEST PUSH1 0x0 PUSH1 0x20 DUP3 ADD SWAP1 POP PUSH3 0x66F PUSH1 0x0 DUP4 ADD DUP5 PUSH3 0x647 JUMP JUMPDEST SWAP3 SWAP2 POP POP JUMP JUMPDEST PUSH1 0x0 DUP2 MLOAD SWAP1 POP SWAP2 SWAP1 POP JUMP JUMPDEST PUSH1 0x0 DUP3 DUP3 MSTORE PUSH1 0x20 DUP3 ADD SWAP1 POP SWAP3 SWAP2 POP POP JUMP JUMPDEST PUSH1 0x0 JUMPDEST DUP4 DUP2 LT ISZERO PUSH3 0x6B1 JUMPI DUP1 DUP3 ADD MLOAD DUP2 DUP5 ADD MSTORE PUSH1 0x20 DUP2 ADD SWAP1 POP PUSH3 0x694 JUMP JUMPDEST PUSH1 0x0 DUP5 DUP5 ADD MSTORE POP POP POP POP JUMP JUMPDEST PUSH1 0x0 PUSH3 0x6CA DUP3 PUSH3 0x675 JUMP JUMPDEST PUSH3 0x6D6 DUP2 DUP6 PUSH3 0x680 JUMP JUMPDEST SWAP4 POP PUSH3 0x6E8 DUP2 DUP6 PUSH1 0x20 DUP7 ADD PUSH3 0x691 JUMP JUMPDEST PUSH3 0x6F3 DUP2 PUSH3 0x394 JUMP JUMPDEST DUP5 ADD SWAP2 POP POP SWAP3 SWAP2 POP POP JUMP JUMPDEST PUSH1 0x0 PUSH1 0xA0 DUP3 ADD SWAP1 POP DUP2 DUP2 SUB PUSH1 0x0 DUP4 ADD MSTORE PUSH3 0x71A DUP2 DUP9 PUSH3 0x6BD JUMP JUMPDEST SWAP1 POP DUP2 DUP2 SUB PUSH1 0x20 DUP4 ADD MSTORE PUSH3 0x730 DUP2 DUP8 PUSH3 0x6BD JUMP JUMPDEST SWAP1 POP DUP2 DUP2 SUB PUSH1 0x40 DUP4 ADD MSTORE PUSH3 0x746 DUP2 DUP7 PUSH3 0x6BD JUMP JUMPDEST SWAP1 POP DUP2 DUP2 SUB PUSH1 0x60 DUP4 ADD MSTORE PUSH3 0x75C DUP2 DUP6 PUSH3 0x6BD JUMP JUMPDEST SWAP1 POP PUSH3 0x76D PUSH1 0x80 DUP4 ADD DUP5 PUSH3 0x647 JUMP JUMPDEST SWAP7 SWAP6 POP POP POP POP POP POP JUMP INVALID PUSH1 0x80 PUSH1 0x40 MSTORE CALLVALUE DUP1 ISZERO PUSH3 0x11 JUMPI PUSH1 0x0 DUP1 REVERT JUMPDEST POP PUSH1 0x40 MLOAD PUSH3 0x1A7C CODESIZE SUB DUP1 PUSH3 0x1A7C DUP4 CODECOPY DUP2 DUP2 ADD PUSH1 0x40 MSTORE DUP2 ADD SWAP1 PUSH3 0x37 SWAP2 SWAP1 PUSH3 0x2C2 JUMP JUMPDEST DUP1 PUSH1 0x0 DUP1 PUSH2 0x100 EXP DUP2 SLOAD DUP2 PUSH20 0xFFFFFFFFFFFFFFFFFFFFFFFFFFFFFFFFFFFFFFFF MUL NOT AND SWAP1 DUP4 PUSH20 0xFFFFFFFFFFFFFFFFFFFFFFFFFFFFFFFFFFFFFFFF AND MUL OR SWAP1 SSTORE POP DUP5 PUSH1 0x1 SWAP1 DUP2 PUSH3 0x88 SWAP2 SWAP1 PUSH3 0x611 JUMP JUMPDEST POP DUP4 PUSH1 0x2 SWAP1 DUP2 PUSH3 0x9A SWAP2 SWAP1 PUSH3 0x611 JUMP JUMPDEST POP DUP3 PUSH1 0x3 SWAP1 DUP2 PUSH3 0xAC SWAP2 SWAP1 PUSH3 0x611 JUMP JUMPDEST POP DUP2 PUSH1 0x4 SWAP1 DUP2 PUSH3 0xBE SWAP2 SWAP1 PUSH3 0x611 JUMP JUMPDEST POP POP POP POP POP POP PUSH3 0x6F8 JUMP JUMPDEST PUSH1 0x0 PUSH1 0x40 MLOAD SWAP1 POP SWAP1 JUMP JUMPDEST PUSH1 0x0 DUP1 REVERT JUMPDEST PUSH1 0x0 DUP1 REVERT JUMPDEST PUSH1 0x0 DUP1 REVERT JUMPDEST PUSH1 0x0 DUP1 REVERT JUMPDEST PUSH1 0x0 PUSH1 0x1F NOT PUSH1 0x1F DUP4 ADD AND SWAP1 POP SWAP2 SWAP1 POP JUMP JUMPDEST PUSH32 0x4E487B7100000000000000000000000000000000000000000000000000000000 PUSH1 0x0 MSTORE PUSH1 0x41 PUSH1 0x4 MSTORE PUSH1 0x24 PUSH1 0x0 REVERT JUMPDEST PUSH3 0x133 DUP3 PUSH3 0xE8 JUMP JUMPDEST DUP2 ADD DUP2 DUP2 LT PUSH8 0xFFFFFFFFFFFFFFFF DUP3 GT OR ISZERO PUSH3 0x155 JUMPI PUSH3 0x154 PUSH3 0xF9 JUMP JUMPDEST JUMPDEST DUP1 PUSH1 0x40 MSTORE POP POP POP JUMP JUMPDEST PUSH1 0x0 PUSH3 0x16A PUSH3 0xCA JUMP JUMPDEST SWAP1 POP PUSH3 0x178 DUP3 DUP3 PUSH3 0x128 JUMP JUMPDEST SWAP2 SWAP1 POP JUMP JUMPDEST PUSH1 0x0 PUSH8 0xFFFFFFFFFFFFFFFF DUP3 GT ISZERO PUSH3 0x19B JUMPI PUSH3 0x19A PUSH3 0xF9 JUMP JUMPDEST JUMPDEST PUSH3 0x1A6 DUP3 PUSH3 0xE8 JUMP JUMPDEST SWAP1 POP PUSH1 0x20 DUP2 ADD SWAP1 POP SWAP2 SWAP1 POP JUMP JUMPDEST PUSH1 0x0 JUMPDEST DUP4 DUP2 LT ISZERO PUSH3 0x1D3 JUMPI DUP1 DUP3 ADD MLOAD DUP2 DUP5 ADD MSTORE PUSH1 0x20 DUP2 ADD SWAP1 POP PUSH3 0x1B6 JUMP JUMPDEST PUSH1 0x0 DUP5 DUP5 ADD MSTORE POP POP POP POP JUMP JUMPDEST PUSH1 0x0 PUSH3 0x1F6 PUSH3 0x1F0 DUP5 PUSH3 0x17D JUMP JUMPDEST PUSH3 0x15E JUMP JUMPDEST SWAP1 POP DUP3 DUP2 MSTORE PUSH1 0x20 DUP2 ADD DUP5 DUP5 DUP5 ADD GT ISZERO PUSH3 0x215 JUMPI PUSH3 0x214 PUSH3 0xE3 JUMP JUMPDEST JUMPDEST PUSH3 0x222 DUP5 DUP3 DUP6 PUSH3 0x1B3 JUMP JUMPDEST POP SWAP4 SWAP3 POP POP POP JUMP JUMPDEST PUSH1 0x0 DUP3 PUSH1 0x1F DUP4 ADD SLT PUSH3 0x242 JUMPI PUSH3 0x241 PUSH3 0xDE JUMP JUMPDEST JUMPDEST DUP2 MLOAD PUSH3 0x254 DUP5 DUP3 PUSH1 0x20 DUP7 ADD PUSH3 0x1DF JUMP JUMPDEST SWAP2 POP POP SWAP3 SWAP2 POP POP JUMP JUMPDEST PUSH1 0x0 PUSH20 0xFFFFFFFFFFFFFFFFFFFFFFFFFFFFFFFFFFFFFFFF DUP3 AND SWAP1 POP SWAP2 SWAP1 POP JUMP JUMPDEST PUSH1 0x0 PUSH3 0x28A DUP3 PUSH3 0x25D JUMP JUMPDEST SWAP1 POP SWAP2 SWAP1 POP JUMP JUMPDEST PUSH3 0x29C DUP2 PUSH3 0x27D JUMP JUMPDEST DUP2 EQ PUSH3 0x2A8 JUMPI PUSH1 0x0 DUP1 REVERT JUMPDEST POP JUMP JUMPDEST PUSH1 0x0 DUP2 MLOAD SWAP1 POP PUSH3 0x2BC DUP2 PUSH3 0x291 JUMP JUMPDEST SWAP3 SWAP2 POP POP JUMP JUMPDEST PUSH1 0x0 DUP1 PUSH1 0x0 DUP1 PUSH1 0x0 PUSH1 0xA0 DUP7 DUP9 SUB SLT ISZERO PUSH3 0x2E1 JUMPI PUSH3 0x2E0 PUSH3 0xD4 JUMP JUMPDEST JUMPDEST PUSH1 0x0 DUP7 ADD MLOAD PUSH8 0xFFFFFFFFFFFFFFFF DUP2 GT ISZERO PUSH3 0x302 JUMPI PUSH3 0x301 PUSH3 0xD9 JUMP JUMPDEST JUMPDEST PUSH3 0x310 DUP9 DUP3 DUP10 ADD PUSH3 0x22A JUMP JUMPDEST SWAP6 POP POP PUSH1 0x20 DUP7 ADD MLOAD PUSH8 0xFFFFFFFFFFFFFFFF DUP2 GT ISZERO PUSH3 0x334 JUMPI PUSH3 0x333 PUSH3 0xD9 JUMP JUMPDEST JUMPDEST PUSH3 0x342 DUP9 DUP3 DUP10 ADD PUSH3 0x22A JUMP JUMPDEST SWAP5 POP POP PUSH1 0x40 DUP7 ADD MLOAD PUSH8 0xFFFFFFFFFFFFFFFF DUP2 GT ISZERO PUSH3 0x366 JUMPI PUSH3 0x365 PUSH3 0xD9 JUMP JUMPDEST JUMPDEST PUSH3 0x374 DUP9 DUP3 DUP10 ADD PUSH3 0x22A JUMP JUMPDEST SWAP4 POP POP PUSH1 0x60 DUP7 ADD MLOAD PUSH8 0xFFFFFFFFFFFFFFFF DUP2 GT ISZERO PUSH3 0x398 JUMPI PUSH3 0x397 PUSH3 0xD9 JUMP JUMPDEST JUMPDEST PUSH3 0x3A6 DUP9 DUP3 DUP10 ADD PUSH3 0x22A JUMP JUMPDEST SWAP3 POP POP PUSH1 0x80 PUSH3 0x3B9 DUP9 DUP3 DUP10 ADD PUSH3 0x2AB JUMP JUMPDEST SWAP2 POP POP SWAP3 SWAP6 POP SWAP3 SWAP6 SWAP1 SWAP4 POP JUMP JUMPDEST PUSH1 0x0 DUP2 MLOAD SWAP1 POP SWAP2 SWAP1 POP JUMP JUMPDEST PUSH32 0x4E487B7100000000000000000000000000000000000000000000000000000000 PUSH1 0x0 MSTORE PUSH1 0x22 PUSH1 0x4 MSTORE PUSH1 0x24 PUSH1 0x0 REVERT JUMPDEST PUSH1 0x0 PUSH1 0x2 DUP3 DIV SWAP1 POP PUSH1 0x1 DUP3 AND DUP1 PUSH3 0x419 JUMPI PUSH1 0x7F DUP3 AND SWAP2 POP JUMPDEST PUSH1 0x20 DUP3 LT DUP2 SUB PUSH3 0x42F JUMPI PUSH3 0x42E PUSH3 0x3D1 JUMP JUMPDEST JUMPDEST POP SWAP2 SWAP1 POP JUMP JUMPDEST PUSH1 0x0 DUP2 SWAP1 POP DUP2 PUSH1 0x0 MSTORE PUSH1 0x20 PUSH1 0x0 KECCAK256 SWAP1 POP SWAP2 SWAP1 POP JUMP JUMPDEST PUSH1 0x0 PUSH1 0x20 PUSH1 0x1F DUP4 ADD DIV SWAP1 POP SWAP2 SWAP1 POP JUMP JUMPDEST PUSH1 0x0 DUP3 DUP3 SHL SWAP1 POP SWAP3 SWAP2 POP POP JUMP JUMPDEST PUSH1 0x0 PUSH1 0x8 DUP4 MUL PUSH3 0x499 PUSH32 0xFFFFFFFFFFFFFFFFFFFFFFFFFFFFFFFFFFFFFFFFFFFFFFFFFFFFFFFFFFFFFFFF DUP3 PUSH3 0x45A JUMP JUMPDEST PUSH3 0x4A5 DUP7 DUP4 PUSH3 0x45A JUMP JUMPDEST SWAP6 POP DUP1 NOT DUP5 AND SWAP4 POP DUP1 DUP7 AND DUP5 OR SWAP3 POP POP POP SWAP4 SWAP3 POP POP POP JUMP JUMPDEST PUSH1 0x0 DUP2 SWAP1 POP SWAP2 SWAP1 POP JUMP JUMPDEST PUSH1 0x0 DUP2 SWAP1 POP SWAP2 SWAP1 POP JUMP JUMPDEST PUSH1 0x0 PUSH3 0x4F2 PUSH3 0x4EC PUSH3 0x4E6 DUP5 PUSH3 0x4BD JUMP JUMPDEST PUSH3 0x4C7 JUMP JUMPDEST PUSH3 0x4BD JUMP JUMPDEST SWAP1 POP SWAP2 SWAP1 POP JUMP JUMPDEST PUSH1 0x0 DUP2 SWAP1 POP SWAP2 SWAP1 POP JUMP JUMPDEST PUSH3 0x50E DUP4 PUSH3 0x4D1 JUMP JUMPDEST PUSH3 0x526 PUSH3 0x51D DUP3 PUSH3 0x4F9 JUMP JUMPDEST DUP5 DUP5 SLOAD PUSH3 0x467 JUMP JUMPDEST DUP3 SSTORE POP POP POP POP JUMP JUMPDEST PUSH1 0x0 SWAP1 JUMP JUMPDEST PUSH3 0x53D PUSH3 0x52E JUMP JUMPDEST PUSH3 0x54A DUP2 DUP5 DUP5 PUSH3 0x503 JUMP JUMPDEST POP POP POP JUMP JUMPDEST JUMPDEST DUP2 DUP2 LT ISZERO PUSH3 0x572 JUMPI PUSH3 0x566 PUSH1 0x0 DUP3 PUSH3 0x533 JUMP JUMPDEST PUSH1 0x1 DUP2 ADD SWAP1 POP PUSH3 0x550 JUMP JUMPDEST POP POP JUMP JUMPDEST PUSH1 0x1F DUP3 GT ISZERO PUSH3 0x5C1 JUMPI PUSH3 0x58B DUP2 PUSH3 0x435 JUMP JUMPDEST PUSH3 0x596 DUP5 PUSH3 0x44A JUMP JUMPDEST DUP2 ADD PUSH1 0x20 DUP6 LT ISZERO PUSH3 0x5A6 JUMPI DUP2 SWAP1 POP JUMPDEST PUSH3 0x5BE PUSH3 0x5B5 DUP6 PUSH3 0x44A JUMP JUMPDEST DUP4 ADD DUP3 PUSH3 0x54F JUMP JUMPDEST POP POP JUMPDEST POP POP POP JUMP JUMPDEST PUSH1 0x0 DUP3 DUP3 SHR SWAP1 POP SWAP3 SWAP2 POP POP JUMP JUMPDEST PUSH1 0x0 PUSH3 0x5E6 PUSH1 0x0 NOT DUP5 PUSH1 0x8 MUL PUSH3 0x5C6 JUMP JUMPDEST NOT DUP1 DUP4 AND SWAP2 POP POP SWAP3 SWAP2 POP POP JUMP JUMPDEST PUSH1 0x0 PUSH3 0x601 DUP4 DUP4 PUSH3 0x5D3 JUMP JUMPDEST SWAP2 POP DUP3 PUSH1 0x2 MUL DUP3 OR SWAP1 POP SWAP3 SWAP2 POP POP JUMP JUMPDEST PUSH3 0x61C DUP3 PUSH3 0x3C6 JUMP JUMPDEST PUSH8 0xFFFFFFFFFFFFFFFF DUP2 GT ISZERO PUSH3 0x638 JUMPI PUSH3 0x637 PUSH3 0xF9 JUMP JUMPDEST JUMPDEST PUSH3 0x644 DUP3 SLOAD PUSH3 0x400 JUMP JUMPDEST PUSH3 0x651 DUP3 DUP3 DUP6 PUSH3 0x576 JUMP JUMPDEST PUSH1 0x0 PUSH1 0x20 SWAP1 POP PUSH1 0x1F DUP4 GT PUSH1 0x1 DUP2 EQ PUSH3 0x689 JUMPI PUSH1 0x0 DUP5 ISZERO PUSH3 0x674 JUMPI DUP3 DUP8 ADD MLOAD SWAP1 POP JUMPDEST PUSH3 0x680 DUP6 DUP3 PUSH3 0x5F3 JUMP JUMPDEST DUP7 SSTORE POP PUSH3 0x6F0 JUMP JUMPDEST PUSH1 0x1F NOT DUP5 AND PUSH3 0x699 DUP7 PUSH3 0x435 JUMP JUMPDEST PUSH1 0x0 JUMPDEST DUP3 DUP2 LT ISZERO PUSH3 0x6C3 JUMPI DUP5 DUP10 ADD MLOAD DUP3 SSTORE PUSH1 0x1 DUP3 ADD SWAP2 POP PUSH1 0x20 DUP6 ADD SWAP5 POP PUSH1 0x20 DUP2 ADD SWAP1 POP PUSH3 0x69C JUMP JUMPDEST DUP7 DUP4 LT ISZERO PUSH3 0x6E3 JUMPI DUP5 DUP10 ADD MLOAD PUSH3 0x6DF PUSH1 0x1F DUP10 AND DUP3 PUSH3 0x5D3 JUMP JUMPDEST DUP4 SSTORE POP JUMPDEST PUSH1 0x1 PUSH1 0x2 DUP9 MUL ADD DUP9 SSTORE POP POP POP JUMPDEST POP POP POP POP POP POP JUMP JUMPDEST PUSH2 0x1374 DUP1 PUSH3 0x708 PUSH1 0x0 CODECOPY PUSH1 0x0 RETURN INVALID PUSH1 0x80 PUSH1 0x40 MSTORE PUSH1 0x4 CALLDATASIZE LT PUSH2 0x12A JUMPI PUSH1 0x0 CALLDATALOAD PUSH1 0xE0 SHR DUP1 PUSH4 0x8DA5CB5B GT PUSH2 0xAB JUMPI DUP1 PUSH4 0xD7BB99BA GT PUSH2 0x6F JUMPI DUP1 PUSH4 0xD7BB99BA EQ PUSH2 0x3C0 JUMPI DUP1 PUSH4 0xE9F146A3 EQ PUSH2 0x3CA JUMPI DUP1 PUSH4 0xF274C897 EQ PUSH2 0x3F5 JUMPI DUP1 PUSH4 0xF84038B1 EQ PUSH2 0x41E JUMPI DUP1 PUSH4 0xFB7F21EB EQ PUSH2 0x449 JUMPI DUP1 PUSH4 0xFBBF93A0 EQ PUSH2 0x474 JUMPI PUSH2 0x12A JUMP JUMPDEST DUP1 PUSH4 0x8DA5CB5B EQ PUSH2 0x2EB JUMPI DUP1 PUSH4 0x937E09B1 EQ PUSH2 0x316 JUMPI DUP1 PUSH4 0xBEB0A416 EQ PUSH2 0x341 JUMPI DUP1 PUSH4 0xCB31AC9A EQ PUSH2 0x36C JUMPI DUP1 PUSH4 0xD0E06220 EQ PUSH2 0x397 JUMPI PUSH2 0x12A JUMP JUMPDEST DUP1 PUSH4 0x44C89B65 GT PUSH2 0xF2 JUMPI DUP1 PUSH4 0x44C89B65 EQ PUSH2 0x228 JUMPI DUP1 PUSH4 0x7284E416 EQ PUSH2 0x253 JUMPI DUP1 PUSH4 0x7DAFD3C0 EQ PUSH2 0x27E JUMPI DUP1 PUSH4 0x7E6253DA EQ PUSH2 0x295 JUMPI DUP1 PUSH4 0x86CDF604 EQ PUSH2 0x2C0 JUMPI PUSH2 0x12A JUMP JUMPDEST DUP1 PUSH4 0x6FDDE03 EQ PUSH2 0x12F JUMPI DUP1 PUSH4 0xADEC93C EQ PUSH2 0x15A JUMPI DUP1 PUSH4 0x12065FE0 EQ PUSH2 0x183 JUMPI DUP1 PUSH4 0x141961BC EQ PUSH2 0x1AE JUMPI DUP1 PUSH4 0x34B66460 EQ PUSH2 0x1EB JUMPI JUMPDEST PUSH1 0x0 DUP1 REVERT JUMPDEST CALLVALUE DUP1 ISZERO PUSH2 0x13B JUMPI PUSH1 0x0 DUP1 REVERT JUMPDEST POP PUSH2 0x144 PUSH2 0x4A4 JUMP JUMPDEST PUSH1 0x40 MLOAD PUSH2 0x151 SWAP2 SWAP1 PUSH2 0xE62 JUMP JUMPDEST PUSH1 0x40 MLOAD DUP1 SWAP2 SUB SWAP1 RETURN JUMPDEST CALLVALUE DUP1 ISZERO PUSH2 0x166 JUMPI PUSH1 0x0 DUP1 REVERT JUMPDEST POP PUSH2 0x181 PUSH1 0x4 DUP1 CALLDATASIZE SUB DUP2 ADD SWAP1 PUSH2 0x17C SWAP2 SWAP1 PUSH2 0xEE7 JUMP JUMPDEST PUSH2 0x532 JUMP JUMPDEST STOP JUMPDEST CALLVALUE DUP1 ISZERO PUSH2 0x18F JUMPI PUSH1 0x0 DUP1 REVERT JUMPDEST POP PUSH2 0x198 PUSH2 0x5DB JUMP JUMPDEST PUSH1 0x40 MLOAD PUSH2 0x1A5 SWAP2 SWAP1 PUSH2 0xF2D JUMP JUMPDEST PUSH1 0x40 MLOAD DUP1 SWAP2 SUB SWAP1 RETURN JUMPDEST CALLVALUE DUP1 ISZERO PUSH2 0x1BA JUMPI PUSH1 0x0 DUP1 REVERT JUMPDEST POP PUSH2 0x1D5 PUSH1 0x4 DUP1 CALLDATASIZE SUB DUP2 ADD SWAP1 PUSH2 0x1D0 SWAP2 SWAP1 PUSH2 0xF74 JUMP JUMPDEST PUSH2 0x5E3 JUMP JUMPDEST PUSH1 0x40 MLOAD PUSH2 0x1E2 SWAP2 SWAP1 PUSH2 0xFC2 JUMP JUMPDEST PUSH1 0x40 MLOAD DUP1 SWAP2 SUB SWAP1 RETURN JUMPDEST CALLVALUE DUP1 ISZERO PUSH2 0x1F7 JUMPI PUSH1 0x0 DUP1 REVERT JUMPDEST POP PUSH2 0x212 PUSH1 0x4 DUP1 CALLDATASIZE SUB DUP2 ADD SWAP1 PUSH2 0x20D SWAP2 SWAP1 PUSH2 0x1009 JUMP JUMPDEST PUSH2 0x622 JUMP JUMPDEST PUSH1 0x40 MLOAD PUSH2 0x21F SWAP2 SWAP1 PUSH2 0x1051 JUMP JUMPDEST PUSH1 0x40 MLOAD DUP1 SWAP2 SUB SWAP1 RETURN JUMPDEST CALLVALUE DUP1 ISZERO PUSH2 0x234 JUMPI PUSH1 0x0 DUP1 REVERT JUMPDEST POP PUSH2 0x23D PUSH2 0x642 JUMP JUMPDEST PUSH1 0x40 MLOAD PUSH2 0x24A SWAP2 SWAP1 PUSH2 0xF2D JUMP JUMPDEST PUSH1 0x40 MLOAD DUP1 SWAP2 SUB SWAP1 RETURN JUMPDEST CALLVALUE DUP1 ISZERO PUSH2 0x25F JUMPI PUSH1 0x0 DUP1 REVERT JUMPDEST POP PUSH2 0x268 PUSH2 0x648 JUMP JUMPDEST PUSH1 0x40 MLOAD PUSH2 0x275 SWAP2 SWAP1 PUSH2 0xE62 JUMP JUMPDEST PUSH1 0x40 MLOAD DUP1 SWAP2 SUB SWAP1 RETURN JUMPDEST CALLVALUE DUP1 ISZERO PUSH2 0x28A JUMPI PUSH1 0x0 DUP1 REVERT JUMPDEST POP PUSH2 0x293 PUSH2 0x6D6 JUMP JUMPDEST STOP JUMPDEST CALLVALUE DUP1 ISZERO PUSH2 0x2A1 JUMPI PUSH1 0x0 DUP1 REVERT JUMPDEST POP PUSH2 0x2AA PUSH2 0x6F0 JUMP JUMPDEST PUSH1 0x40 MLOAD PUSH2 0x2B7 SWAP2 SWAP1 PUSH2 0xF2D JUMP JUMPDEST PUSH1 0x40 MLOAD DUP1 SWAP2 SUB SWAP1 RETURN JUMPDEST CALLVALUE DUP1 ISZERO PUSH2 0x2CC JUMPI PUSH1 0x0 DUP1 REVERT JUMPDEST POP PUSH2 0x2D5 PUSH2 0x6FA JUMP JUMPDEST PUSH1 0x40 MLOAD PUSH2 0x2E2 SWAP2 SWAP1 PUSH2 0x112A JUMP JUMPDEST PUSH1 0x40 MLOAD DUP1 SWAP2 SUB SWAP1 RETURN JUMPDEST CALLVALUE DUP1 ISZERO PUSH2 0x2F7 JUMPI PUSH1 0x0 DUP1 REVERT JUMPDEST POP PUSH2 0x300 PUSH2 0x788 JUMP JUMPDEST PUSH1 0x40 MLOAD PUSH2 0x30D SWAP2 SWAP1 PUSH2 0xFC2 JUMP JUMPDEST PUSH1 0x40 MLOAD DUP1 SWAP2 SUB SWAP1 RETURN JUMPDEST CALLVALUE DUP1 ISZERO PUSH2 0x322 JUMPI PUSH1 0x0 DUP1 REVERT JUMPDEST POP PUSH2 0x32B PUSH2 0x7AC JUMP JUMPDEST PUSH1 0x40 MLOAD PUSH2 0x338 SWAP2 SWAP1 PUSH2 0xF2D JUMP JUMPDEST PUSH1 0x40 MLOAD DUP1 SWAP2 SUB SWAP1 RETURN JUMPDEST CALLVALUE DUP1 ISZERO PUSH2 0x34D JUMPI PUSH1 0x0 DUP1 REVERT JUMPDEST POP PUSH2 0x356 PUSH2 0x7B2 JUMP JUMPDEST PUSH1 0x40 MLOAD PUSH2 0x363 SWAP2 SWAP1 PUSH2 0xE62 JUMP JUMPDEST PUSH1 0x40 MLOAD DUP1 SWAP2 SUB SWAP1 RETURN JUMPDEST CALLVALUE DUP1 ISZERO PUSH2 0x378 JUMPI PUSH1 0x0 DUP1 REVERT JUMPDEST POP PUSH2 0x381 PUSH2 0x840 JUMP JUMPDEST PUSH1 0x40 MLOAD PUSH2 0x38E SWAP2 SWAP1 PUSH2 0x112A JUMP JUMPDEST PUSH1 0x40 MLOAD DUP1 SWAP2 SUB SWAP1 RETURN JUMPDEST CALLVALUE DUP1 ISZERO PUSH2 0x3A3 JUMPI PUSH1 0x0 DUP1 REVERT JUMPDEST POP PUSH2 0x3BE PUSH1 0x4 DUP1 CALLDATASIZE SUB DUP2 ADD SWAP1 PUSH2 0x3B9 SWAP2 SWAP1 PUSH2 0x1009 JUMP JUMPDEST PUSH2 0x931 JUMP JUMPDEST STOP JUMPDEST PUSH2 0x3C8 PUSH2 0x9A6 JUMP JUMPDEST STOP JUMPDEST CALLVALUE DUP1 ISZERO PUSH2 0x3D6 JUMPI PUSH1 0x0 DUP1 REVERT JUMPDEST POP PUSH2 0x3DF PUSH2 0xA18 JUMP JUMPDEST PUSH1 0x40 MLOAD PUSH2 0x3EC SWAP2 SWAP1 PUSH2 0xF2D JUMP JUMPDEST PUSH1 0x40 MLOAD DUP1 SWAP2 SUB SWAP1 RETURN JUMPDEST CALLVALUE DUP1 ISZERO PUSH2 0x401 JUMPI PUSH1 0x0 DUP1 REVERT JUMPDEST POP PUSH2 0x41C PUSH1 0x4 DUP1 CALLDATASIZE SUB DUP2 ADD SWAP1 PUSH2 0x417 SWAP2 SWAP1 PUSH2 0x114C JUMP JUMPDEST PUSH2 0xA1E JUMP JUMPDEST STOP JUMPDEST CALLVALUE DUP1 ISZERO PUSH2 0x42A JUMPI PUSH1 0x0 DUP1 REVERT JUMPDEST POP PUSH2 0x433 PUSH2 0xAD5 JUMP JUMPDEST PUSH1 0x40 MLOAD PUSH2 0x440 SWAP2 SWAP1 PUSH2 0xF2D JUMP JUMPDEST PUSH1 0x40 MLOAD DUP1 SWAP2 SUB SWAP1 RETURN JUMPDEST CALLVALUE DUP1 ISZERO PUSH2 0x455 JUMPI PUSH1 0x0 DUP1 REVERT JUMPDEST POP PUSH2 0x45E PUSH2 0xADF JUMP JUMPDEST PUSH1 0x40 MLOAD PUSH2 0x46B SWAP2 SWAP1 PUSH2 0xE62 JUMP JUMPDEST PUSH1 0x40 MLOAD DUP1 SWAP2 SUB SWAP1 RETURN JUMPDEST CALLVALUE DUP1 ISZERO PUSH2 0x480 JUMPI PUSH1 0x0 DUP1 REVERT JUMPDEST POP PUSH2 0x489 PUSH2 0xB6D JUMP JUMPDEST PUSH1 0x40 MLOAD PUSH2 0x49B SWAP7 SWAP6 SWAP5 SWAP4 SWAP3 SWAP2 SWAP1 PUSH2 0x118C JUMP JUMPDEST PUSH1 0x40 MLOAD DUP1 SWAP2 SUB SWAP1 RETURN JUMPDEST PUSH1 0x1 DUP1 SLOAD PUSH2 0x4B1 SWAP1 PUSH2 0x1238 JUMP JUMPDEST DUP1 PUSH1 0x1F ADD PUSH1 0x20 DUP1 SWAP2 DIV MUL PUSH1 0x20 ADD PUSH1 0x40 MLOAD SWAP1 DUP2 ADD PUSH1 0x40 MSTORE DUP1 SWAP3 SWAP2 SWAP1 DUP2 DUP2 MSTORE PUSH1 0x20 ADD DUP3 DUP1 SLOAD PUSH2 0x4DD SWAP1 PUSH2 0x1238 JUMP JUMPDEST DUP1 ISZERO PUSH2 0x52A JUMPI DUP1 PUSH1 0x1F LT PUSH2 0x4FF JUMPI PUSH2 0x100 DUP1 DUP4 SLOAD DIV MUL DUP4 MSTORE SWAP2 PUSH1 0x20 ADD SWAP2 PUSH2 0x52A JUMP JUMPDEST DUP3 ADD SWAP2 SWAP1 PUSH1 0x0 MSTORE PUSH1 0x20 PUSH1 0x0 KECCAK256 SWAP1 JUMPDEST DUP2 SLOAD DUP2 MSTORE SWAP1 PUSH1 0x1 ADD SWAP1 PUSH1 0x20 ADD DUP1 DUP4 GT PUSH2 0x50D JUMPI DUP3 SWAP1 SUB PUSH1 0x1F AND DUP3 ADD SWAP2 JUMPDEST POP POP POP POP POP DUP2 JUMP JUMPDEST PUSH1 0x0 DUP1 SLOAD SWAP1 PUSH2 0x100 EXP SWAP1 DIV PUSH20 0xFFFFFFFFFFFFFFFFFFFFFFFFFFFFFFFFFFFFFFFF AND PUSH20 0xFFFFFFFFFFFFFFFFFFFFFFFFFFFFFFFFFFFFFFFF AND CALLER PUSH20 0xFFFFFFFFFFFFFFFFFFFFFFFFFFFFFFFFFFFFFFFF AND EQ PUSH2 0x58A JUMPI PUSH1 0x0 DUP1 REVERT JUMPDEST DUP1 PUSH20 0xFFFFFFFFFFFFFFFFFFFFFFFFFFFFFFFFFFFFFFFF AND PUSH2 0x8FC PUSH2 0x5AC PUSH2 0x5DB JUMP JUMPDEST SWAP1 DUP2 ISZERO MUL SWAP1 PUSH1 0x40 MLOAD PUSH1 0x0 PUSH1 0x40 MLOAD DUP1 DUP4 SUB DUP2 DUP6 DUP9 DUP9 CALL SWAP4 POP POP POP POP ISZERO DUP1 ISZERO PUSH2 0x5D7 JUMPI RETURNDATASIZE PUSH1 0x0 DUP1 RETURNDATACOPY RETURNDATASIZE PUSH1 0x0 REVERT JUMPDEST POP POP JUMP JUMPDEST PUSH1 0x0 SELFBALANCE SWAP1 POP SWAP1 JUMP JUMPDEST PUSH1 0x9 DUP2 DUP2 SLOAD DUP2 LT PUSH2 0x5F3 JUMPI PUSH1 0x0 DUP1 REVERT JUMPDEST SWAP1 PUSH1 0x0 MSTORE PUSH1 0x20 PUSH1 0x0 KECCAK256 ADD PUSH1 0x0 SWAP2 POP SLOAD SWAP1 PUSH2 0x100 EXP SWAP1 DIV PUSH20 0xFFFFFFFFFFFFFFFFFFFFFFFFFFFFFFFFFFFFFFFF AND DUP2 JUMP JUMPDEST PUSH1 0x6 PUSH1 0x20 MSTORE DUP1 PUSH1 0x0 MSTORE PUSH1 0x40 PUSH1 0x0 KECCAK256 PUSH1 0x0 SWAP2 POP SLOAD SWAP1 PUSH2 0x100 EXP SWAP1 DIV PUSH1 0xFF AND DUP2 JUMP JUMPDEST PUSH1 0x8 SLOAD DUP2 JUMP JUMPDEST PUSH1 0x2 DUP1 SLOAD PUSH2 0x655 SWAP1 PUSH2 0x1238 JUMP JUMPDEST DUP1 PUSH1 0x1F ADD PUSH1 0x20 DUP1 SWAP2 DIV MUL PUSH1 0x20 ADD PUSH1 0x40 MLOAD SWAP1 DUP2 ADD PUSH1 0x40 MSTORE DUP1 SWAP3 SWAP2 SWAP1 DUP2 DUP2 MSTORE PUSH1 0x20 ADD DUP3 DUP1 SLOAD PUSH2 0x681 SWAP1 PUSH2 0x1238 JUMP JUMPDEST DUP1 ISZERO PUSH2 0x6CE JUMPI DUP1 PUSH1 0x1F LT PUSH2 0x6A3 JUMPI PUSH2 0x100 DUP1 DUP4 SLOAD DIV MUL DUP4 MSTORE SWAP2 PUSH1 0x20 ADD SWAP2 PUSH2 0x6CE JUMP JUMPDEST DUP3 ADD SWAP2 SWAP1 PUSH1 0x0 MSTORE PUSH1 0x20 PUSH1 0x0 KECCAK256 SWAP1 JUMPDEST DUP2 SLOAD DUP2 MSTORE SWAP1 PUSH1 0x1 ADD SWAP1 PUSH1 0x20 ADD DUP1 DUP4 GT PUSH2 0x6B1 JUMPI DUP3 SWAP1 SUB PUSH1 0x1F AND DUP3 ADD SWAP2 JUMPDEST POP POP POP POP POP DUP2 JUMP JUMPDEST PUSH1 0x8 PUSH1 0x0 DUP2 SLOAD DUP1 SWAP3 SWAP2 SWAP1 PUSH2 0x6E9 SWAP1 PUSH2 0x1298 JUMP JUMPDEST SWAP2 SWAP1 POP SSTORE POP JUMP JUMPDEST PUSH1 0x0 PUSH1 0x8 SLOAD SWAP1 POP SWAP1 JUMP JUMPDEST PUSH1 0x60 PUSH1 0x9 DUP1 SLOAD DUP1 PUSH1 0x20 MUL PUSH1 0x20 ADD PUSH1 0x40 MLOAD SWAP1 DUP2 ADD PUSH1 0x40 MSTORE DUP1 SWAP3 SWAP2 SWAP1 DUP2 DUP2 MSTORE PUSH1 0x20 ADD DUP3 DUP1 SLOAD DUP1 ISZERO PUSH2 0x77E JUMPI PUSH1 0x20 MUL DUP3 ADD SWAP2 SWAP1 PUSH1 0x0 MSTORE PUSH1 0x20 PUSH1 0x0 KECCAK256 SWAP1 JUMPDEST DUP2 PUSH1 0x0 SWAP1 SLOAD SWAP1 PUSH2 0x100 EXP SWAP1 DIV PUSH20 0xFFFFFFFFFFFFFFFFFFFFFFFFFFFFFFFFFFFFFFFF AND PUSH20 0xFFFFFFFFFFFFFFFFFFFFFFFFFFFFFFFFFFFFFFFF AND DUP2 MSTORE PUSH1 0x20 ADD SWAP1 PUSH1 0x1 ADD SWAP1 DUP1 DUP4 GT PUSH2 0x734 JUMPI JUMPDEST POP POP POP POP POP SWAP1 POP SWAP1 JUMP JUMPDEST PUSH1 0x0 DUP1 SLOAD SWAP1 PUSH2 0x100 EXP SWAP1 DIV PUSH20 0xFFFFFFFFFFFFFFFFFFFFFFFFFFFFFFFFFFFFFFFF AND DUP2 JUMP JUMPDEST PUSH1 0x5 SLOAD DUP2 JUMP JUMPDEST PUSH1 0x3 DUP1 SLOAD PUSH2 0x7BF SWAP1 PUSH2 0x1238 JUMP JUMPDEST DUP1 PUSH1 0x1F ADD PUSH1 0x20 DUP1 SWAP2 DIV MUL PUSH1 0x20 ADD PUSH1 0x40 MLOAD SWAP1 DUP2 ADD PUSH1 0x40 MSTORE DUP1 SWAP3 SWAP2 SWAP1 DUP2 DUP2 MSTORE PUSH1 0x20 ADD DUP3 DUP1 SLOAD PUSH2 0x7EB SWAP1 PUSH2 0x1238 JUMP JUMPDEST DUP1 ISZERO PUSH2 0x838 JUMPI DUP1 PUSH1 0x1F LT PUSH2 0x80D JUMPI PUSH2 0x100 DUP1 DUP4 SLOAD DIV MUL DUP4 MSTORE SWAP2 PUSH1 0x20 ADD SWAP2 PUSH2 0x838 JUMP JUMPDEST DUP3 ADD SWAP2 SWAP1 PUSH1 0x0 MSTORE PUSH1 0x20 PUSH1 0x0 KECCAK256 SWAP1 JUMPDEST DUP2 SLOAD DUP2 MSTORE SWAP1 PUSH1 0x1 ADD SWAP1 PUSH1 0x20 ADD DUP1 DUP4 GT PUSH2 0x81B JUMPI DUP3 SWAP1 SUB PUSH1 0x1F AND DUP3 ADD SWAP2 JUMPDEST POP POP POP POP POP DUP2 JUMP JUMPDEST PUSH1 0x60 PUSH1 0x0 PUSH1 0x7 SLOAD PUSH8 0xFFFFFFFFFFFFFFFF DUP2 GT ISZERO PUSH2 0x860 JUMPI PUSH2 0x85F PUSH2 0x12E0 JUMP JUMPDEST JUMPDEST PUSH1 0x40 MLOAD SWAP1 DUP1 DUP3 MSTORE DUP1 PUSH1 0x20 MUL PUSH1 0x20 ADD DUP3 ADD PUSH1 0x40 MSTORE DUP1 ISZERO PUSH2 0x88E JUMPI DUP2 PUSH1 0x20 ADD PUSH1 0x20 DUP3 MUL DUP1 CALLDATASIZE DUP4 CALLDATACOPY DUP1 DUP3 ADD SWAP2 POP POP SWAP1 POP JUMPDEST POP SWAP1 POP PUSH1 0x0 DUP1 JUMPDEST PUSH1 0x7 SLOAD DUP2 LT ISZERO PUSH2 0x928 JUMPI DUP3 DUP2 DUP2 MLOAD DUP2 LT PUSH2 0x8B2 JUMPI PUSH2 0x8B1 PUSH2 0x130F JUMP JUMPDEST JUMPDEST PUSH1 0x20 MUL PUSH1 0x20 ADD ADD MLOAD DUP4 DUP4 DUP2 MLOAD DUP2 LT PUSH2 0x8CD JUMPI PUSH2 0x8CC PUSH2 0x130F JUMP JUMPDEST JUMPDEST PUSH1 0x20 MUL PUSH1 0x20 ADD ADD SWAP1 PUSH20 0xFFFFFFFFFFFFFFFFFFFFFFFFFFFFFFFFFFFFFFFF AND SWAP1 DUP2 PUSH20 0xFFFFFFFFFFFFFFFFFFFFFFFFFFFFFFFFFFFFFFFF AND DUP2 MSTORE POP POP DUP2 DUP1 PUSH2 0x912 SWAP1 PUSH2 0x1298 JUMP JUMPDEST SWAP3 POP POP DUP1 DUP1 PUSH2 0x920 SWAP1 PUSH2 0x1298 JUMP JUMPDEST SWAP2 POP POP PUSH2 0x895 JUMP JUMPDEST POP DUP2 SWAP3 POP POP POP SWAP1 JUMP JUMPDEST PUSH1 0x3 PUSH1 0x8 SLOAD LT PUSH2 0x940 JUMPI PUSH1 0x0 DUP1 REVERT JUMPDEST PUSH1 0x9 DUP2 SWAP1 DUP1 PUSH1 0x1 DUP2 SLOAD ADD DUP1 DUP3 SSTORE DUP1 SWAP2 POP POP PUSH1 0x1 SWAP1 SUB SWAP1 PUSH1 0x0 MSTORE PUSH1 0x20 PUSH1 0x0 KECCAK256 ADD PUSH1 0x0 SWAP1 SWAP2 SWAP1 SWAP2 SWAP1 SWAP2 PUSH2 0x100 EXP DUP2 SLOAD DUP2 PUSH20 0xFFFFFFFFFFFFFFFFFFFFFFFFFFFFFFFFFFFFFFFF MUL NOT AND SWAP1 DUP4 PUSH20 0xFFFFFFFFFFFFFFFFFFFFFFFFFFFFFFFFFFFFFFFF AND MUL OR SWAP1 SSTORE POP POP JUMP JUMPDEST PUSH1 0x1 PUSH1 0x6 PUSH1 0x0 CALLER PUSH20 0xFFFFFFFFFFFFFFFFFFFFFFFFFFFFFFFFFFFFFFFF AND PUSH20 0xFFFFFFFFFFFFFFFFFFFFFFFFFFFFFFFFFFFFFFFF AND DUP2 MSTORE PUSH1 0x20 ADD SWAP1 DUP2 MSTORE PUSH1 0x20 ADD PUSH1 0x0 KECCAK256 PUSH1 0x0 PUSH2 0x100 EXP DUP2 SLOAD DUP2 PUSH1 0xFF MUL NOT AND SWAP1 DUP4 ISZERO ISZERO MUL OR SWAP1 SSTORE POP PUSH1 0x7 PUSH1 0x0 DUP2 SLOAD DUP1 SWAP3 SWAP2 SWAP1 PUSH2 0xA11 SWAP1 PUSH2 0x1298 JUMP JUMPDEST SWAP2 SWAP1 POP SSTORE POP JUMP JUMPDEST PUSH1 0x7 SLOAD DUP2 JUMP JUMPDEST PUSH1 0x0 DUP1 SLOAD SWAP1 PUSH2 0x100 EXP SWAP1 DIV PUSH20 0xFFFFFFFFFFFFFFFFFFFFFFFFFFFFFFFFFFFFFFFF AND PUSH20 0xFFFFFFFFFFFFFFFFFFFFFFFFFFFFFFFFFFFFFFFF AND CALLER PUSH20 0xFFFFFFFFFFFFFFFFFFFFFFFFFFFFFFFFFFFFFFFF AND EQ PUSH2 0xA76 JUMPI PUSH1 0x0 DUP1 REVERT JUMPDEST PUSH2 0xA7E PUSH2 0x5DB JUMP JUMPDEST DUP2 GT ISZERO PUSH2 0xA8A JUMPI PUSH1 0x0 DUP1 REVERT JUMPDEST DUP2 PUSH20 0xFFFFFFFFFFFFFFFFFFFFFFFFFFFFFFFFFFFFFFFF AND PUSH2 0x8FC DUP3 SWAP1 DUP2 ISZERO MUL SWAP1 PUSH1 0x40 MLOAD PUSH1 0x0 PUSH1 0x40 MLOAD DUP1 DUP4 SUB DUP2 DUP6 DUP9 DUP9 CALL SWAP4 POP POP POP POP ISZERO DUP1 ISZERO PUSH2 0xAD0 JUMPI RETURNDATASIZE PUSH1 0x0 DUP1 RETURNDATACOPY RETURNDATASIZE PUSH1 0x0 REVERT JUMPDEST POP POP POP JUMP JUMPDEST PUSH1 0x0 PUSH1 0x5 SLOAD SWAP1 POP SWAP1 JUMP JUMPDEST PUSH1 0x4 DUP1 SLOAD PUSH2 0xAEC SWAP1 PUSH2 0x1238 JUMP JUMPDEST DUP1 PUSH1 0x1F ADD PUSH1 0x20 DUP1 SWAP2 DIV MUL PUSH1 0x20 ADD PUSH1 0x40 MLOAD SWAP1 DUP2 ADD PUSH1 0x40 MSTORE DUP1 SWAP3 SWAP2 SWAP1 DUP2 DUP2 MSTORE PUSH1 0x20 ADD DUP3 DUP1 SLOAD PUSH2 0xB18 SWAP1 PUSH2 0x1238 JUMP JUMPDEST DUP1 ISZERO PUSH2 0xB65 JUMPI DUP1 PUSH1 0x1F LT PUSH2 0xB3A JUMPI PUSH2 0x100 DUP1 DUP4 SLOAD DIV MUL DUP4 MSTORE SWAP2 PUSH1 0x20 ADD SWAP2 PUSH2 0xB65 JUMP JUMPDEST DUP3 ADD SWAP2 SWAP1 PUSH1 0x0 MSTORE PUSH1 0x20 PUSH1 0x0 KECCAK256 SWAP1 JUMPDEST DUP2 SLOAD DUP2 MSTORE SWAP1 PUSH1 0x1 ADD SWAP1 PUSH1 0x20 ADD DUP1 DUP4 GT PUSH2 0xB48 JUMPI DUP3 SWAP1 SUB PUSH1 0x1F AND DUP3 ADD SWAP2 JUMPDEST POP POP POP POP POP DUP2 JUMP JUMPDEST PUSH1 0x60 DUP1 PUSH1 0x60 DUP1 PUSH1 0x0 DUP1 PUSH1 0x1 PUSH1 0x2 PUSH1 0x3 PUSH1 0x4 PUSH2 0xB86 PUSH2 0x5DB JUMP JUMPDEST PUSH2 0xB8E PUSH2 0xAD5 JUMP JUMPDEST DUP6 DUP1 SLOAD PUSH2 0xB9A SWAP1 PUSH2 0x1238 JUMP JUMPDEST DUP1 PUSH1 0x1F ADD PUSH1 0x20 DUP1 SWAP2 DIV MUL PUSH1 0x20 ADD PUSH1 0x40 MLOAD SWAP1 DUP2 ADD PUSH1 0x40 MSTORE DUP1 SWAP3 SWAP2 SWAP1 DUP2 DUP2 MSTORE PUSH1 0x20 ADD DUP3 DUP1 SLOAD PUSH2 0xBC6 SWAP1 PUSH2 0x1238 JUMP JUMPDEST DUP1 ISZERO PUSH2 0xC13 JUMPI DUP1 PUSH1 0x1F LT PUSH2 0xBE8 JUMPI PUSH2 0x100 DUP1 DUP4 SLOAD DIV MUL DUP4 MSTORE SWAP2 PUSH1 0x20 ADD SWAP2 PUSH2 0xC13 JUMP JUMPDEST DUP3 ADD SWAP2 SWAP1 PUSH1 0x0 MSTORE PUSH1 0x20 PUSH1 0x0 KECCAK256 SWAP1 JUMPDEST DUP2 SLOAD DUP2 MSTORE SWAP1 PUSH1 0x1 ADD SWAP1 PUSH1 0x20 ADD DUP1 DUP4 GT PUSH2 0xBF6 JUMPI DUP3 SWAP1 SUB PUSH1 0x1F AND DUP3 ADD SWAP2 JUMPDEST POP POP POP POP POP SWAP6 POP DUP5 DUP1 SLOAD PUSH2 0xC26 SWAP1 PUSH2 0x1238 JUMP JUMPDEST DUP1 PUSH1 0x1F ADD PUSH1 0x20 DUP1 SWAP2 DIV MUL PUSH1 0x20 ADD PUSH1 0x40 MLOAD SWAP1 DUP2 ADD PUSH1 0x40 MSTORE DUP1 SWAP3 SWAP2 SWAP1 DUP2 DUP2 MSTORE PUSH1 0x20 ADD DUP3 DUP1 SLOAD PUSH2 0xC52 SWAP1 PUSH2 0x1238 JUMP JUMPDEST DUP1 ISZERO PUSH2 0xC9F JUMPI DUP1 PUSH1 0x1F LT PUSH2 0xC74 JUMPI PUSH2 0x100 DUP1 DUP4 SLOAD DIV MUL DUP4 MSTORE SWAP2 PUSH1 0x20 ADD SWAP2 PUSH2 0xC9F JUMP JUMPDEST DUP3 ADD SWAP2 SWAP1 PUSH1 0x0 MSTORE PUSH1 0x20 PUSH1 0x0 KECCAK256 SWAP1 JUMPDEST DUP2 SLOAD DUP2 MSTORE SWAP1 PUSH1 0x1 ADD SWAP1 PUSH1 0x20 ADD DUP1 DUP4 GT PUSH2 0xC82 JUMPI DUP3 SWAP1 SUB PUSH1 0x1F AND DUP3 ADD SWAP2 JUMPDEST POP POP POP POP POP SWAP5 POP DUP4 DUP1 SLOAD PUSH2 0xCB2 SWAP1 PUSH2 0x1238 JUMP JUMPDEST DUP1 PUSH1 0x1F ADD PUSH1 0x20 DUP1 SWAP2 DIV MUL PUSH1 0x20 ADD PUSH1 0x40 MLOAD SWAP1 DUP2 ADD PUSH1 0x40 MSTORE DUP1 SWAP3 SWAP2 SWAP1 DUP2 DUP2 MSTORE PUSH1 0x20 ADD DUP3 DUP1 SLOAD PUSH2 0xCDE SWAP1 PUSH2 0x1238 JUMP JUMPDEST DUP1 ISZERO PUSH2 0xD2B JUMPI DUP1 PUSH1 0x1F LT PUSH2 0xD00 JUMPI PUSH2 0x100 DUP1 DUP4 SLOAD DIV MUL DUP4 MSTORE SWAP2 PUSH1 0x20 ADD SWAP2 PUSH2 0xD2B JUMP JUMPDEST DUP3 ADD SWAP2 SWAP1 PUSH1 0x0 MSTORE PUSH1 0x20 PUSH1 0x0 KECCAK256 SWAP1 JUMPDEST DUP2 SLOAD DUP2 MSTORE SWAP1 PUSH1 0x1 ADD SWAP1 PUSH1 0x20 ADD DUP1 DUP4 GT PUSH2 0xD0E JUMPI DUP3 SWAP1 SUB PUSH1 0x1F AND DUP3 ADD SWAP2 JUMPDEST POP POP POP POP POP SWAP4 POP DUP3 DUP1 SLOAD PUSH2 0xD3E SWAP1 PUSH2 0x1238 JUMP JUMPDEST DUP1 PUSH1 0x1F ADD PUSH1 0x20 DUP1 SWAP2 DIV MUL PUSH1 0x20 ADD PUSH1 0x40 MLOAD SWAP1 DUP2 ADD PUSH1 0x40 MSTORE DUP1 SWAP3 SWAP2 SWAP1 DUP2 DUP2 MSTORE PUSH1 0x20 ADD DUP3 DUP1 SLOAD PUSH2 0xD6A SWAP1 PUSH2 0x1238 JUMP JUMPDEST DUP1 ISZERO PUSH2 0xDB7 JUMPI DUP1 PUSH1 0x1F LT PUSH2 0xD8C JUMPI PUSH2 0x100 DUP1 DUP4 SLOAD DIV MUL DUP4 MSTORE SWAP2 PUSH1 0x20 ADD SWAP2 PUSH2 0xDB7 JUMP JUMPDEST DUP3 ADD SWAP2 SWAP1 PUSH1 0x0 MSTORE PUSH1 0x20 PUSH1 0x0 KECCAK256 SWAP1 JUMPDEST DUP2 SLOAD DUP2 MSTORE SWAP1 PUSH1 0x1 ADD SWAP1 PUSH1 0x20 ADD DUP1 DUP4 GT PUSH2 0xD9A JUMPI DUP3 SWAP1 SUB PUSH1 0x1F AND DUP3 ADD SWAP2 JUMPDEST POP POP POP POP POP SWAP3 POP SWAP6 POP SWAP6 POP SWAP6 POP SWAP6 POP SWAP6 POP SWAP6 POP SWAP1 SWAP2 SWAP3 SWAP4 SWAP5 SWAP6 JUMP JUMPDEST PUSH1 0x0 DUP2 MLOAD SWAP1 POP SWAP2 SWAP1 POP JUMP JUMPDEST PUSH1 0x0 DUP3 DUP3 MSTORE PUSH1 0x20 DUP3 ADD SWAP1 POP SWAP3 SWAP2 POP POP JUMP JUMPDEST PUSH1 0x0 JUMPDEST DUP4 DUP2 LT ISZERO PUSH2 0xE0C JUMPI DUP1 DUP3 ADD MLOAD DUP2 DUP5 ADD MSTORE PUSH1 0x20 DUP2 ADD SWAP1 POP PUSH2 0xDF1 JUMP JUMPDEST PUSH1 0x0 DUP5 DUP5 ADD MSTORE POP POP POP POP JUMP JUMPDEST PUSH1 0x0 PUSH1 0x1F NOT PUSH1 0x1F DUP4 ADD AND SWAP1 POP SWAP2 SWAP1 POP JUMP JUMPDEST PUSH1 0x0 PUSH2 0xE34 DUP3 PUSH2 0xDD2 JUMP JUMPDEST PUSH2 0xE3E DUP2 DUP6 PUSH2 0xDDD JUMP JUMPDEST SWAP4 POP PUSH2 0xE4E DUP2 DUP6 PUSH1 0x20 DUP7 ADD PUSH2 0xDEE JUMP JUMPDEST PUSH2 0xE57 DUP2 PUSH2 0xE18 JUMP JUMPDEST DUP5 ADD SWAP2 POP POP SWAP3 SWAP2 POP POP JUMP JUMPDEST PUSH1 0x0 PUSH1 0x20 DUP3 ADD SWAP1 POP DUP2 DUP2 SUB PUSH1 0x0 DUP4 ADD MSTORE PUSH2 0xE7C DUP2 DUP5 PUSH2 0xE29 JUMP JUMPDEST SWAP1 POP SWAP3 SWAP2 POP POP JUMP JUMPDEST PUSH1 0x0 DUP1 REVERT JUMPDEST PUSH1 0x0 PUSH20 0xFFFFFFFFFFFFFFFFFFFFFFFFFFFFFFFFFFFFFFFF DUP3 AND SWAP1 POP SWAP2 SWAP1 POP JUMP JUMPDEST PUSH1 0x0 PUSH2 0xEB4 DUP3 PUSH2 0xE89 JUMP JUMPDEST SWAP1 POP SWAP2 SWAP1 POP JUMP JUMPDEST PUSH2 0xEC4 DUP2 PUSH2 0xEA9 JUMP JUMPDEST DUP2 EQ PUSH2 0xECF JUMPI PUSH1 0x0 DUP1 REVERT JUMPDEST POP JUMP JUMPDEST PUSH1 0x0 DUP2 CALLDATALOAD SWAP1 POP PUSH2 0xEE1 DUP2 PUSH2 0xEBB JUMP JUMPDEST SWAP3 SWAP2 POP POP JUMP JUMPDEST PUSH1 0x0 PUSH1 0x20 DUP3 DUP5 SUB SLT ISZERO PUSH2 0xEFD JUMPI PUSH2 0xEFC PUSH2 0xE84 JUMP JUMPDEST JUMPDEST PUSH1 0x0 PUSH2 0xF0B DUP5 DUP3 DUP6 ADD PUSH2 0xED2 JUMP JUMPDEST SWAP2 POP POP SWAP3 SWAP2 POP POP JUMP JUMPDEST PUSH1 0x0 DUP2 SWAP1 POP SWAP2 SWAP1 POP JUMP JUMPDEST PUSH2 0xF27 DUP2 PUSH2 0xF14 JUMP JUMPDEST DUP3 MSTORE POP POP JUMP JUMPDEST PUSH1 0x0 PUSH1 0x20 DUP3 ADD SWAP1 POP PUSH2 0xF42 PUSH1 0x0 DUP4 ADD DUP5 PUSH2 0xF1E JUMP JUMPDEST SWAP3 SWAP2 POP POP JUMP JUMPDEST PUSH2 0xF51 DUP2 PUSH2 0xF14 JUMP JUMPDEST DUP2 EQ PUSH2 0xF5C JUMPI PUSH1 0x0 DUP1 REVERT JUMPDEST POP JUMP JUMPDEST PUSH1 0x0 DUP2 CALLDATALOAD SWAP1 POP PUSH2 0xF6E DUP2 PUSH2 0xF48 JUMP JUMPDEST SWAP3 SWAP2 POP POP JUMP JUMPDEST PUSH1 0x0 PUSH1 0x20 DUP3 DUP5 SUB SLT ISZERO PUSH2 0xF8A JUMPI PUSH2 0xF89 PUSH2 0xE84 JUMP JUMPDEST JUMPDEST PUSH1 0x0 PUSH2 0xF98 DUP5 DUP3 DUP6 ADD PUSH2 0xF5F JUMP JUMPDEST SWAP2 POP POP SWAP3 SWAP2 POP POP JUMP JUMPDEST PUSH1 0x0 PUSH2 0xFAC DUP3 PUSH2 0xE89 JUMP JUMPDEST SWAP1 POP SWAP2 SWAP1 POP JUMP JUMPDEST PUSH2 0xFBC DUP2 PUSH2 0xFA1 JUMP JUMPDEST DUP3 MSTORE POP POP JUMP JUMPDEST PUSH1 0x0 PUSH1 0x20 DUP3 ADD SWAP1 POP PUSH2 0xFD7 PUSH1 0x0 DUP4 ADD DUP5 PUSH2 0xFB3 JUMP JUMPDEST SWAP3 SWAP2 POP POP JUMP JUMPDEST PUSH2 0xFE6 DUP2 PUSH2 0xFA1 JUMP JUMPDEST DUP2 EQ PUSH2 0xFF1 JUMPI PUSH1 0x0 DUP1 REVERT JUMPDEST POP JUMP JUMPDEST PUSH1 0x0 DUP2 CALLDATALOAD SWAP1 POP PUSH2 0x1003 DUP2 PUSH2 0xFDD JUMP JUMPDEST SWAP3 SWAP2 POP POP JUMP JUMPDEST PUSH1 0x0 PUSH1 0x20 DUP3 DUP5 SUB SLT ISZERO PUSH2 0x101F JUMPI PUSH2 0x101E PUSH2 0xE84 JUMP JUMPDEST JUMPDEST PUSH1 0x0 PUSH2 0x102D DUP5 DUP3 DUP6 ADD PUSH2 0xFF4 JUMP JUMPDEST SWAP2 POP POP SWAP3 SWAP2 POP POP JUMP JUMPDEST PUSH1 0x0 DUP2 ISZERO ISZERO SWAP1 POP SWAP2 SWAP1 POP JUMP JUMPDEST PUSH2 0x104B DUP2 PUSH2 0x1036 JUMP JUMPDEST DUP3 MSTORE POP POP JUMP JUMPDEST PUSH1 0x0 PUSH1 0x20 DUP3 ADD SWAP1 POP PUSH2 0x1066 PUSH1 0x0 DUP4 ADD DUP5 PUSH2 0x1042 JUMP JUMPDEST SWAP3 SWAP2 POP POP JUMP JUMPDEST PUSH1 0x0 DUP2 MLOAD SWAP1 POP SWAP2 SWAP1 POP JUMP JUMPDEST PUSH1 0x0 DUP3 DUP3 MSTORE PUSH1 0x20 DUP3 ADD SWAP1 POP SWAP3 SWAP2 POP POP JUMP JUMPDEST PUSH1 0x0 DUP2 SWAP1 POP PUSH1 0x20 DUP3 ADD SWAP1 POP SWAP2 SWAP1 POP JUMP JUMPDEST PUSH2 0x10A1 DUP2 PUSH2 0xFA1 JUMP JUMPDEST DUP3 MSTORE POP POP JUMP JUMPDEST PUSH1 0x0 PUSH2 0x10B3 DUP4 DUP4 PUSH2 0x1098 JUMP JUMPDEST PUSH1 0x20 DUP4 ADD SWAP1 POP SWAP3 SWAP2 POP POP JUMP JUMPDEST PUSH1 0x0 PUSH1 0x20 DUP3 ADD SWAP1 POP SWAP2 SWAP1 POP JUMP JUMPDEST PUSH1 0x0 PUSH2 0x10D7 DUP3 PUSH2 0x106C JUMP JUMPDEST PUSH2 0x10E1 DUP2 DUP6 PUSH2 0x1077 JUMP JUMPDEST SWAP4 POP PUSH2 0x10EC DUP4 PUSH2 0x1088 JUMP JUMPDEST DUP1 PUSH1 0x0 JUMPDEST DUP4 DUP2 LT ISZERO PUSH2 0x111D JUMPI DUP2 MLOAD PUSH2 0x1104 DUP9 DUP3 PUSH2 0x10A7 JUMP JUMPDEST SWAP8 POP PUSH2 0x110F DUP4 PUSH2 0x10BF JUMP JUMPDEST SWAP3 POP POP PUSH1 0x1 DUP2 ADD SWAP1 POP PUSH2 0x10F0 JUMP JUMPDEST POP DUP6 SWAP4 POP POP POP POP SWAP3 SWAP2 POP POP JUMP JUMPDEST PUSH1 0x0 PUSH1 0x20 DUP3 ADD SWAP1 POP DUP2 DUP2 SUB PUSH1 0x0 DUP4 ADD MSTORE PUSH2 0x1144 DUP2 DUP5 PUSH2 0x10CC JUMP JUMPDEST SWAP1 POP SWAP3 SWAP2 POP POP JUMP JUMPDEST PUSH1 0x0 DUP1 PUSH1 0x40 DUP4 DUP6 SUB SLT ISZERO PUSH2 0x1163 JUMPI PUSH2 0x1162 PUSH2 0xE84 JUMP JUMPDEST JUMPDEST PUSH1 0x0 PUSH2 0x1171 DUP6 DUP3 DUP7 ADD PUSH2 0xED2 JUMP JUMPDEST SWAP3 POP POP PUSH1 0x20 PUSH2 0x1182 DUP6 DUP3 DUP7 ADD PUSH2 0xF5F JUMP JUMPDEST SWAP2 POP POP SWAP3 POP SWAP3 SWAP1 POP JUMP JUMPDEST PUSH1 0x0 PUSH1 0xC0 DUP3 ADD SWAP1 POP DUP2 DUP2 SUB PUSH1 0x0 DUP4 ADD MSTORE PUSH2 0x11A6 DUP2 DUP10 PUSH2 0xE29 JUMP JUMPDEST SWAP1 POP DUP2 DUP2 SUB PUSH1 0x20 DUP4 ADD MSTORE PUSH2 0x11BA DUP2 DUP9 PUSH2 0xE29 JUMP JUMPDEST SWAP1 POP DUP2 DUP2 SUB PUSH1 0x40 DUP4 ADD MSTORE PUSH2 0x11CE DUP2 DUP8 PUSH2 0xE29 JUMP JUMPDEST SWAP1 POP DUP2 DUP2 SUB PUSH1 0x60 DUP4 ADD MSTORE PUSH2 0x11E2 DUP2 DUP7 PUSH2 0xE29 JUMP JUMPDEST SWAP1 POP PUSH2 0x11F1 PUSH1 0x80 DUP4 ADD DUP6 PUSH2 0xF1E JUMP JUMPDEST PUSH2 0x11FE PUSH1 0xA0 DUP4 ADD DUP5 PUSH2 0xF1E JUMP JUMPDEST SWAP8 SWAP7 POP POP POP POP POP POP POP JUMP JUMPDEST PUSH32 0x4E487B7100000000000000000000000000000000000000000000000000000000 PUSH1 0x0 MSTORE PUSH1 0x22 PUSH1 0x4 MSTORE PUSH1 0x24 PUSH1 0x0 REVERT JUMPDEST PUSH1 0x0 PUSH1 0x2 DUP3 DIV SWAP1 POP PUSH1 0x1 DUP3 AND DUP1 PUSH2 0x1250 JUMPI PUSH1 0x7F DUP3 AND SWAP2 POP JUMPDEST PUSH1 0x20 DUP3 LT DUP2 SUB PUSH2 0x1263 JUMPI PUSH2 0x1262 PUSH2 0x1209 JUMP JUMPDEST JUMPDEST POP SWAP2 SWAP1 POP JUMP JUMPDEST PUSH32 0x4E487B7100000000000000000000000000000000000000000000000000000000 PUSH1 0x0 MSTORE PUSH1 0x11 PUSH1 0x4 MSTORE PUSH1 0x24 PUSH1 0x0 REVERT JUMPDEST PUSH1 0x0 PUSH2 0x12A3 DUP3 PUSH2 0xF14 JUMP JUMPDEST SWAP2 POP PUSH32 0xFFFFFFFFFFFFFFFFFFFFFFFFFFFFFFFFFFFFFFFFFFFFFFFFFFFFFFFFFFFFFFFF DUP3 SUB PUSH2 0x12D5 JUMPI PUSH2 0x12D4 PUSH2 0x1269 JUMP JUMPDEST JUMPDEST PUSH1 0x1 DUP3 ADD SWAP1 POP SWAP2 SWAP1 POP JUMP JUMPDEST PUSH32 0x4E487B7100000000000000000000000000000000000000000000000000000000 PUSH1 0x0 MSTORE PUSH1 0x41 PUSH1 0x4 MSTORE PUSH1 0x24 PUSH1 0x0 REVERT JUMPDEST PUSH32 0x4E487B7100000000000000000000000000000000000000000000000000000000 PUSH1 0x0 MSTORE PUSH1 0x32 PUSH1 0x4 MSTORE PUSH1 0x24 PUSH1 0x0 REVERT INVALID LOG2 PUSH5 0x6970667358 0x22 SLT KECCAK256 0x1E 0xB9 SHL MOD LOG4 PUSH25 0x56B31F73C4124C84B089075A3039F3D6F14985F0FFC4B6CCFE AND PUSH5 0x736F6C6343 STOP ADDMOD GT STOP CALLER LOG2 PUSH5 0x6970667358 0x22 SLT KECCAK256 EXP 0x4B CALLCODE 0xE8 0xC 0xA9 PUSH1 0xA5 0x27 0xC 0x2C SWAP13 PUSH31 0xF9812AD905485CF7A71E9019F10A9C1C7474564736F6C6343000811003300 "},"gasEstimates":{"creation":{"codeDepositCost":"1749000","executionCost":"1841","totalCost":"1750841"},"external":{"createOrganization(string,string,string,string)":"infinite","getAllOrganizations()":"infinite","organizations(uint256)":"4978"}},"methodIdentifiers":{"createOrganization(string,string,string,string)":"c791c83d","getAllOrganizations()":"086ed938","organizations(uint256)":"e792dd8a"}},"storageLayout":{"storage":[{"astId":535,"contract":"contracts/OrganizationFactory.sol:OrganizationFactory","label":"organizations","offset":0,"slot":"0","type":"t_array(t_address)dyn_storage"}],"types":{"t_address":{"encoding":"inplace","label":"address","numberOfBytes":"20"},"t_array(t_address)dyn_storage":{"base":"t_address","encoding":"dynamic_array","label":"address[]","numberOfBytes":"32"}}},"userdoc":{"kind":"user","methods":{},"version":1}}}}