{
  "_format": "hh-sol-artifact-1",
  "contractName": "CampaignFactory",
  "sourceName": "contracts/CampaignFactory.sol",
  "abi": [
    {
      "inputs": [
        {
          "internalType": "uint256",
          "name": "",
          "type": "uint256"
        }
      ],
      "name": "campaigns",
      "outputs": [
        {
          "internalType": "address",
          "name": "",
          "type": "address"
        }
      ],
      "stateMutability": "view",
      "type": "function"
    },
    {
      "inputs": [
        {
          "internalType": "uint256",
          "name": "minimumContribution",
          "type": "uint256"
        },
        {
          "internalType": "string",
          "name": "name",
          "type": "string"
        },
        {
          "internalType": "string",
          "name": "description",
          "type": "string"
        },
        {
          "internalType": "string",
          "name": "tagLine",
          "type": "string"
        },
        {
          "internalType": "string[]",
          "name": "tags",
          "type": "string[]"
        }
      ],
      "name": "createCampaign",
      "outputs": [],
      "stateMutability": "nonpayable",
      "type": "function"
    },
    {
      "inputs": [],
      "name": "getAllCampaigns",
      "outputs": [
        {
          "internalType": "address[]",
          "name": "",
          "type": "address[]"
        }
      ],
      "stateMutability": "view",
      "type": "function"
    }
  ],
  "bytecode": "0x608060405234801561001057600080fd5b50612731806100206000396000f3fe60806040523480156200001157600080fd5b5060043610620000465760003560e01c8063141961bc146200004b57806386cdf6041462000081578063f318da5e14620000a3575b600080fd5b620000696004803603810190620000639190620002a2565b620000c3565b60405162000078919062000319565b60405180910390f35b6200008b62000103565b6040516200009a919062000404565b60405180910390f35b620000c16004803603810190620000bb919062000686565b62000193565b005b60008181548110620000d457600080fd5b906000526020600020016000915054906101000a900473ffffffffffffffffffffffffffffffffffffffff1681565b606060008054806020026020016040519081016040528092919081815260200182805480156200018957602002820191906000526020600020905b8160009054906101000a900473ffffffffffffffffffffffffffffffffffffffff1673ffffffffffffffffffffffffffffffffffffffff16815260200190600101908083116200013e575b5050505050905090565b6000853386868686604051620001a99062000245565b620001ba9695949392919062000946565b604051809103906000f080158015620001d7573d6000803e3d6000fd5b5090506000819080600181540180825580915050600190039060005260206000200160009091909190916101000a81548173ffffffffffffffffffffffffffffffffffffffff021916908373ffffffffffffffffffffffffffffffffffffffff160217905550505050505050565b611d2c80620009d083390190565b6000604051905090565b600080fd5b600080fd5b6000819050919050565b6200027c8162000267565b81146200028857600080fd5b50565b6000813590506200029c8162000271565b92915050565b600060208284031215620002bb57620002ba6200025d565b5b6000620002cb848285016200028b565b91505092915050565b600073ffffffffffffffffffffffffffffffffffffffff82169050919050565b60006200030182620002d4565b9050919050565b6200031381620002f4565b82525050565b600060208201905062000330600083018462000308565b92915050565b600081519050919050565b600082825260208201905092915050565b6000819050602082019050919050565b6200036d81620002f4565b82525050565b600062000381838362000362565b60208301905092915050565b6000602082019050919050565b6000620003a78262000336565b620003b3818562000341565b9350620003c08362000352565b8060005b83811015620003f7578151620003db888262000373565b9750620003e8836200038d565b925050600181019050620003c4565b5085935050505092915050565b600060208201905081810360008301526200042081846200039a565b905092915050565b600080fd5b600080fd5b6000601f19601f8301169050919050565b7f4e487b7100000000000000000000000000000000000000000000000000000000600052604160045260246000fd5b6200047d8262000432565b810181811067ffffffffffffffff821117156200049f576200049e62000443565b5b80604052505050565b6000620004b462000253565b9050620004c2828262000472565b919050565b600067ffffffffffffffff821115620004e557620004e462000443565b5b620004f08262000432565b9050602081019050919050565b82818337600083830152505050565b6000620005236200051d84620004c7565b620004a8565b9050828152602081018484840111156200054257620005416200042d565b5b6200054f848285620004fd565b509392505050565b600082601f8301126200056f576200056e62000428565b5b8135620005818482602086016200050c565b91505092915050565b600067ffffffffffffffff821115620005a857620005a762000443565b5b602082029050602081019050919050565b600080fd5b6000620005d5620005cf846200058a565b620004a8565b90508083825260208201905060208402830185811115620005fb57620005fa620005b9565b5b835b818110156200064957803567ffffffffffffffff81111562000624576200062362000428565b5b80860162000633898262000557565b85526020850194505050602081019050620005fd565b5050509392505050565b600082601f8301126200066b576200066a62000428565b5b81356200067d848260208601620005be565b91505092915050565b600080600080600060a08688031215620006a557620006a46200025d565b5b6000620006b5888289016200028b565b955050602086013567ffffffffffffffff811115620006d957620006d862000262565b5b620006e78882890162000557565b945050604086013567ffffffffffffffff8111156200070b576200070a62000262565b5b620007198882890162000557565b935050606086013567ffffffffffffffff8111156200073d576200073c62000262565b5b6200074b8882890162000557565b925050608086013567ffffffffffffffff8111156200076f576200076e62000262565b5b6200077d8882890162000653565b9150509295509295909350565b620007958162000267565b82525050565b600081519050919050565b600082825260208201905092915050565b60005b83811015620007d7578082015181840152602081019050620007ba565b60008484015250505050565b6000620007f0826200079b565b620007fc8185620007a6565b93506200080e818560208601620007b7565b620008198162000432565b840191505092915050565b600081519050919050565b600082825260208201905092915050565b6000819050602082019050919050565b600082825260208201905092915050565b60006200086e826200079b565b6200087a818562000850565b93506200088c818560208601620007b7565b620008978162000432565b840191505092915050565b6000620008b0838362000861565b905092915050565b6000602082019050919050565b6000620008d28262000824565b620008de81856200082f565b935083602082028501620008f28562000840565b8060005b85811015620009345784840389528151620009128582620008a2565b94506200091f83620008b8565b925060208a01995050600181019050620008f6565b50829750879550505050505092915050565b600060c0820190506200095d60008301896200078a565b6200096c602083018862000308565b8181036040830152620009808187620007e3565b90508181036060830152620009968186620007e3565b90508181036080830152620009ac8185620007e3565b905081810360a0830152620009c28184620008c5565b905097965050505050505056fe60806040523480156200001157600080fd5b5060405162001d2c38038062001d2c83398181016040528101906200003791906200057b565b846000806101000a81548173ffffffffffffffffffffffffffffffffffffffff021916908373ffffffffffffffffffffffffffffffffffffffff160217905550856001819055508360056000019081620000929190620008d4565b508260056001019081620000a79190620008d4565b508160056002019081620000bc9190620008d4565b50600267ffffffffffffffff811115620000db57620000da6200031b565b5b6040519080825280602002602001820160405280156200011057816020015b6060815260200190600190039081620000fa5790505b50600560030190805190602001906200012b9291906200015f565b508060056003019080519060200190620001479291906200015f565b506000600560040181905550505050505050620009bb565b828054828255906000526020600020908101928215620001ac579160200282015b82811115620001ab5782518290816200019a9190620008d4565b509160200191906001019062000180565b5b509050620001bb9190620001bf565b5090565b5b80821115620001e35760008181620001d99190620001e7565b50600101620001c0565b5090565b508054620001f590620006cd565b6000825580601f106200020957506200022a565b601f0160209004906000526020600020908101906200022991906200022d565b5b50565b5b80821115620002485760008160009055506001016200022e565b5090565b6000604051905090565b600080fd5b600080fd5b6000819050919050565b620002758162000260565b81146200028157600080fd5b50565b60008151905062000295816200026a565b92915050565b600073ffffffffffffffffffffffffffffffffffffffff82169050919050565b6000620002c8826200029b565b9050919050565b620002da81620002bb565b8114620002e657600080fd5b50565b600081519050620002fa81620002cf565b92915050565b600080fd5b600080fd5b6000601f19601f8301169050919050565b7f4e487b7100000000000000000000000000000000000000000000000000000000600052604160045260246000fd5b62000355826200030a565b810181811067ffffffffffffffff821117156200037757620003766200031b565b5b80604052505050565b60006200038c6200024c565b90506200039a82826200034a565b919050565b600067ffffffffffffffff821115620003bd57620003bc6200031b565b5b620003c8826200030a565b9050602081019050919050565b60005b83811015620003f5578082015181840152602081019050620003d8565b60008484015250505050565b60006200041862000412846200039f565b62000380565b90508281526020810184848401111562000437576200043662000305565b5b62000444848285620003d5565b509392505050565b600082601f83011262000464576200046362000300565b5b81516200047684826020860162000401565b91505092915050565b600067ffffffffffffffff8211156200049d576200049c6200031b565b5b602082029050602081019050919050565b600080fd5b6000620004ca620004c4846200047f565b62000380565b90508083825260208201905060208402830185811115620004f057620004ef620004ae565b5b835b818110156200053e57805167ffffffffffffffff81111562000519576200051862000300565b5b8086016200052889826200044c565b85526020850194505050602081019050620004f2565b5050509392505050565b600082601f83011262000560576200055f62000300565b5b815162000572848260208601620004b3565b91505092915050565b60008060008060008060c087890312156200059b576200059a62000256565b5b6000620005ab89828a0162000284565b9650506020620005be89828a01620002e9565b955050604087015167ffffffffffffffff811115620005e257620005e16200025b565b5b620005f089828a016200044c565b945050606087015167ffffffffffffffff8111156200061457620006136200025b565b5b6200062289828a016200044c565b935050608087015167ffffffffffffffff8111156200064657620006456200025b565b5b6200065489828a016200044c565b92505060a087015167ffffffffffffffff8111156200067857620006776200025b565b5b6200068689828a0162000548565b9150509295509295509295565b600081519050919050565b7f4e487b7100000000000000000000000000000000000000000000000000000000600052602260045260246000fd5b60006002820490506001821680620006e657607f821691505b602082108103620006fc57620006fb6200069e565b5b50919050565b60008190508160005260206000209050919050565b60006020601f8301049050919050565b600082821b905092915050565b600060088302620007667fffffffffffffffffffffffffffffffffffffffffffffffffffffffffffffffff8262000727565b62000772868362000727565b95508019841693508086168417925050509392505050565b6000819050919050565b6000620007b5620007af620007a98462000260565b6200078a565b62000260565b9050919050565b6000819050919050565b620007d18362000794565b620007e9620007e082620007bc565b84845462000734565b825550505050565b600090565b62000800620007f1565b6200080d818484620007c6565b505050565b5b81811015620008355762000829600082620007f6565b60018101905062000813565b5050565b601f82111562000884576200084e8162000702565b620008598462000717565b8101602085101562000869578190505b62000881620008788562000717565b83018262000812565b50505b505050565b600082821c905092915050565b6000620008a96000198460080262000889565b1980831691505092915050565b6000620008c4838362000896565b9150826002028217905092915050565b620008df8262000693565b67ffffffffffffffff811115620008fb57620008fa6200031b565b5b620009078254620006cd565b6200091482828562000839565b600060209050601f8311600181146200094c576000841562000937578287015190505b620009438582620008b6565b865550620009b3565b601f1984166200095c8662000702565b60005b8281101562000986578489015182556001820191506020850194506020810190506200095f565b86831015620009a65784890151620009a2601f89168262000896565b8355505b6001600288020188555050505b505050505050565b61136180620009cb6000396000f3fe6080604052600436106100dd5760003560e01c8063937e09b11161007f578063e792dd8a11610059578063e792dd8a1461026c578063e9f146a3146102a9578063f84038b1146102d4578063fbbf93a0146102ff576100dd565b8063937e09b11461020e578063d7bb99ba14610239578063e4133d6f14610243576100dd565b806334b66460116100bb57806334b664601461014d578063565974d31461018a5780638da5cb5b146101b857806390e4f4c6146101e3576100dd565b806312065fe0146100e257806314ec993d1461010d5780632f97102914610124575b600080fd5b3480156100ee57600080fd5b506100f761032a565b6040516101049190610d02565b60405180910390f35b34801561011957600080fd5b50610122610332565b005b34801561013057600080fd5b5061014b60048036038101906101469190610d80565b6104b5565b005b34801561015957600080fd5b50610174600480360381019061016f9190610deb565b6104ff565b6040516101819190610e33565b60405180910390f35b34801561019657600080fd5b5061019f61051f565b6040516101af9493929190610ede565b60405180910390f35b3480156101c457600080fd5b506101cd6106d5565b6040516101da9190610f47565b60405180910390f35b3480156101ef57600080fd5b506101f86106f9565b6040516102059190610d02565b60405180910390f35b34801561021a57600080fd5b50610223610705565b6040516102309190610d02565b60405180910390f35b61024161070b565b005b34801561024f57600080fd5b5061026a60048036038101906102659190610deb565b61078b565b005b34801561027857600080fd5b50610293600480360381019061028e9190610f8e565b6109b8565b6040516102a09190610f47565b60405180910390f35b3480156102b557600080fd5b506102be6109f7565b6040516102cb9190610d02565b60405180910390f35b3480156102e057600080fd5b506102e96109fd565b6040516102f69190610d02565b60405180910390f35b34801561030b57600080fd5b50610314610a07565b6040516103219190611161565b60405180910390f35b600047905090565b60008054906101000a900473ffffffffffffffffffffffffffffffffffffffff1673ffffffffffffffffffffffffffffffffffffffff163373ffffffffffffffffffffffffffffffffffffffff161461038a57600080fd5b670de0b6b3a764000061039b61032a565b10156103d3576040517f46cec71a00000000000000000000000000000000000000000000000000000000815260040160405180910390fd5b60006004805490506103e361032a565b6103ed91906111e1565b905060005b6004805490508110156104b1576004818154811061041357610412611212565b5b9060005260206000200160009054906101000a900473ffffffffffffffffffffffffffffffffffffffff1673ffffffffffffffffffffffffffffffffffffffff1663d7bb99ba836040518263ffffffff1660e01b81526004016000604051808303818588803b15801561048557600080fd5b505af1158015610499573d6000803e3d6000fd5b505050505080806104a990611241565b9150506103f2565b5050565b8073ffffffffffffffffffffffffffffffffffffffff166108fc479081150290604051600060405180830381858888f193505050501580156104fb573d6000803e3d6000fd5b5050565b60026020528060005260406000206000915054906101000a900460ff1681565b6005806000018054610530906112b8565b80601f016020809104026020016040519081016040528092919081815260200182805461055c906112b8565b80156105a95780601f1061057e576101008083540402835291602001916105a9565b820191906000526020600020905b81548152906001019060200180831161058c57829003601f168201915b5050505050908060010180546105be906112b8565b80601f01602080910402602001604051908101604052809291908181526020018280546105ea906112b8565b80156106375780601f1061060c57610100808354040283529160200191610637565b820191906000526020600020905b81548152906001019060200180831161061a57829003601f168201915b50505050509080600201805461064c906112b8565b80601f0160208091040260200160405190810160405280929190818152602001828054610678906112b8565b80156106c55780601f1061069a576101008083540402835291602001916106c5565b820191906000526020600020905b8154815290600101906020018083116106a857829003601f168201915b5050505050908060040154905084565b60008054906101000a900473ffffffffffffffffffffffffffffffffffffffff1681565b670de0b6b3a764000081565b60015481565b600154341161071957600080fd5b6001600260003373ffffffffffffffffffffffffffffffffffffffff1673ffffffffffffffffffffffffffffffffffffffff16815260200190815260200160002060006101000a81548160ff0219169083151502179055506003600081548092919061078490611241565b9190505550565b60008054906101000a900473ffffffffffffffffffffffffffffffffffffffff1673ffffffffffffffffffffffffffffffffffffffff163373ffffffffffffffffffffffffffffffffffffffff16146107e357600080fd5b60005b6004805490508110156108a9578173ffffffffffffffffffffffffffffffffffffffff166004828154811061081e5761081d611212565b5b9060005260206000200160009054906101000a900473ffffffffffffffffffffffffffffffffffffffff1673ffffffffffffffffffffffffffffffffffffffff1603610896576040517f5bb7d60100000000000000000000000000000000000000000000000000000000815260040160405180910390fd5b80806108a190611241565b9150506107e6565b5060038173ffffffffffffffffffffffffffffffffffffffff16637e6253da6040518163ffffffff1660e01b8152600401602060405180830381865afa1580156108f7573d6000803e3d6000fd5b505050506040513d601f19601f8201168201806040525081019061091b91906112fe565b10610952576040517f4dd7f2f900000000000000000000000000000000000000000000000000000000815260040160405180910390fd5b6004819080600181540180825580915050600190039060005260206000200160009091909190916101000a81548173ffffffffffffffffffffffffffffffffffffffff021916908373ffffffffffffffffffffffffffffffffffffffff16021790555050565b600481815481106109c857600080fd5b906000526020600020016000915054906101000a900473ffffffffffffffffffffffffffffffffffffffff1681565b60035481565b6000600154905090565b610a0f610cba565b60056040518060a0016040529081600082018054610a2c906112b8565b80601f0160208091040260200160405190810160405280929190818152602001828054610a58906112b8565b8015610aa55780601f10610a7a57610100808354040283529160200191610aa5565b820191906000526020600020905b815481529060010190602001808311610a8857829003601f168201915b50505050508152602001600182018054610abe906112b8565b80601f0160208091040260200160405190810160405280929190818152602001828054610aea906112b8565b8015610b375780601f10610b0c57610100808354040283529160200191610b37565b820191906000526020600020905b815481529060010190602001808311610b1a57829003601f168201915b50505050508152602001600282018054610b50906112b8565b80601f0160208091040260200160405190810160405280929190818152602001828054610b7c906112b8565b8015610bc95780601f10610b9e57610100808354040283529160200191610bc9565b820191906000526020600020905b815481529060010190602001808311610bac57829003601f168201915b5050505050815260200160038201805480602002602001604051908101604052809291908181526020016000905b82821015610ca3578382906000526020600020018054610c16906112b8565b80601f0160208091040260200160405190810160405280929190818152602001828054610c42906112b8565b8015610c8f5780601f10610c6457610100808354040283529160200191610c8f565b820191906000526020600020905b815481529060010190602001808311610c7257829003601f168201915b505050505081526020019060010190610bf7565b505050508152602001600482015481525050905090565b6040518060a0016040528060608152602001606081526020016060815260200160608152602001600081525090565b6000819050919050565b610cfc81610ce9565b82525050565b6000602082019050610d176000830184610cf3565b92915050565b600080fd5b600073ffffffffffffffffffffffffffffffffffffffff82169050919050565b6000610d4d82610d22565b9050919050565b610d5d81610d42565b8114610d6857600080fd5b50565b600081359050610d7a81610d54565b92915050565b600060208284031215610d9657610d95610d1d565b5b6000610da484828501610d6b565b91505092915050565b6000610db882610d22565b9050919050565b610dc881610dad565b8114610dd357600080fd5b50565b600081359050610de581610dbf565b92915050565b600060208284031215610e0157610e00610d1d565b5b6000610e0f84828501610dd6565b91505092915050565b60008115159050919050565b610e2d81610e18565b82525050565b6000602082019050610e486000830184610e24565b92915050565b600081519050919050565b600082825260208201905092915050565b60005b83811015610e88578082015181840152602081019050610e6d565b60008484015250505050565b6000601f19601f8301169050919050565b6000610eb082610e4e565b610eba8185610e59565b9350610eca818560208601610e6a565b610ed381610e94565b840191505092915050565b60006080820190508181036000830152610ef88187610ea5565b90508181036020830152610f0c8186610ea5565b90508181036040830152610f208185610ea5565b9050610f2f6060830184610cf3565b95945050505050565b610f4181610dad565b82525050565b6000602082019050610f5c6000830184610f38565b92915050565b610f6b81610ce9565b8114610f7657600080fd5b50565b600081359050610f8881610f62565b92915050565b600060208284031215610fa457610fa3610d1d565b5b6000610fb284828501610f79565b91505092915050565b600082825260208201905092915050565b6000610fd782610e4e565b610fe18185610fbb565b9350610ff1818560208601610e6a565b610ffa81610e94565b840191505092915050565b600081519050919050565b600082825260208201905092915050565b6000819050602082019050919050565b600061103d8383610fcc565b905092915050565b6000602082019050919050565b600061105d82611005565b6110678185611010565b93508360208202850161107985611021565b8060005b858110156110b557848403895281516110968582611031565b94506110a183611045565b925060208a0199505060018101905061107d565b50829750879550505050505092915050565b6110d081610ce9565b82525050565b600060a08301600083015184820360008601526110f38282610fcc565b9150506020830151848203602086015261110d8282610fcc565b915050604083015184820360408601526111278282610fcc565b915050606083015184820360608601526111418282611052565b915050608083015161115660808601826110c7565b508091505092915050565b6000602082019050818103600083015261117b81846110d6565b905092915050565b7f4e487b7100000000000000000000000000000000000000000000000000000000600052601260045260246000fd5b7f4e487b7100000000000000000000000000000000000000000000000000000000600052601160045260246000fd5b60006111ec82610ce9565b91506111f783610ce9565b92508261120757611206611183565b5b828204905092915050565b7f4e487b7100000000000000000000000000000000000000000000000000000000600052603260045260246000fd5b600061124c82610ce9565b91507fffffffffffffffffffffffffffffffffffffffffffffffffffffffffffffffff820361127e5761127d6111b2565b5b600182019050919050565b7f4e487b7100000000000000000000000000000000000000000000000000000000600052602260045260246000fd5b600060028204905060018216806112d057607f821691505b6020821081036112e3576112e2611289565b5b50919050565b6000815190506112f881610f62565b92915050565b60006020828403121561131457611313610d1d565b5b6000611322848285016112e9565b9150509291505056fea26469706673582212208c248a958d561f5308139098193377cafc0fd05ac7426c736822c0321d22b81964736f6c63430008110033a26469706673582212204520b6613a6c5cd2e4bbbb3f540003d696b3404bd1d7df7b4577b36c5d6a5a4764736f6c63430008110033",
  "linkReferences": {},
  "deployedLinkReferences": {}
}