{
  "_format": "hh-sol-artifact-1",
  "contractName": "Campaign",
  "sourceName": "contracts/Campaign.sol",
  "abi": [
    {
      "inputs": [],
      "stateMutability": "nonpayable",
      "type": "constructor"
    },
    {
      "inputs": [],
      "name": "Campaign__AlreadyEnrolled",
      "type": "error"
    },
    {
      "inputs": [],
      "name": "Campaign__NoOrganizationEnrolled",
      "type": "error"
    },
    {
      "inputs": [
        {
          "internalType": "address",
          "name": "",
          "type": "address"
        }
      ],
      "name": "contributers",
      "outputs": [
        {
          "internalType": "bool",
          "name": "",
          "type": "bool"
        }
      ],
      "stateMutability": "view",
      "type": "function"
    },
    {
      "inputs": [],
      "name": "contributersCount",
      "outputs": [
        {
          "internalType": "uint256",
          "name": "",
          "type": "uint256"
        }
      ],
      "stateMutability": "view",
      "type": "function"
    },
    {
      "inputs": [],
      "name": "disburseFunds",
      "outputs": [],
      "stateMutability": "nonpayable",
      "type": "function"
    },
    {
      "inputs": [
        {
          "internalType": "address",
          "name": "organization",
          "type": "address"
        }
      ],
      "name": "enrollOrganization",
      "outputs": [],
      "stateMutability": "nonpayable",
      "type": "function"
    },
    {
      "inputs": [],
      "name": "fund",
      "outputs": [],
      "stateMutability": "payable",
      "type": "function"
    },
    {
      "inputs": [],
      "name": "getBalance",
      "outputs": [
        {
          "internalType": "uint256",
          "name": "",
          "type": "uint256"
        }
      ],
      "stateMutability": "view",
      "type": "function"
    },
    {
      "inputs": [],
      "name": "getMinimumContribution",
      "outputs": [
        {
          "internalType": "uint256",
          "name": "",
          "type": "uint256"
        }
      ],
      "stateMutability": "view",
      "type": "function"
    },
    {
      "inputs": [],
      "name": "getOrganizations",
      "outputs": [
        {
          "internalType": "address[]",
          "name": "",
          "type": "address[]"
        }
      ],
      "stateMutability": "view",
      "type": "function"
    },
    {
      "inputs": [],
      "name": "minimumContribution",
      "outputs": [
        {
          "internalType": "uint256",
          "name": "",
          "type": "uint256"
        }
      ],
      "stateMutability": "view",
      "type": "function"
    },
    {
      "inputs": [],
      "name": "minimumDisburseAllowed",
      "outputs": [
        {
          "internalType": "uint256",
          "name": "",
          "type": "uint256"
        }
      ],
      "stateMutability": "view",
      "type": "function"
    },
    {
      "inputs": [
        {
          "internalType": "uint256",
          "name": "",
          "type": "uint256"
        }
      ],
      "name": "organizations",
      "outputs": [
        {
          "internalType": "address",
          "name": "",
          "type": "address"
        }
      ],
      "stateMutability": "view",
      "type": "function"
    },
    {
      "inputs": [],
      "name": "owner",
      "outputs": [
        {
          "internalType": "address",
          "name": "",
          "type": "address"
        }
      ],
      "stateMutability": "view",
      "type": "function"
    },
    {
      "inputs": [
        {
          "internalType": "address payable",
          "name": "recipient",
          "type": "address"
        }
      ],
      "name": "withdrawMoney",
      "outputs": [],
      "stateMutability": "nonpayable",
      "type": "function"
    }
  ],
  "bytecode": "0x60806040523480156200001157600080fd5b50336000806101000a81548173ffffffffffffffffffffffffffffffffffffffff021916908373ffffffffffffffffffffffffffffffffffffffff160217905550600067ffffffffffffffff81111562000070576200006f6200016c565b5b6040519080825280602002602001820160405280156200009f5781602001602082028036833780820191505090505b5060049080519060200190620000b7929190620000be565b506200019b565b8280548282559060005260206000209081019282156200013a579160200282015b82811115620001395782518260006101000a81548173ffffffffffffffffffffffffffffffffffffffff021916908373ffffffffffffffffffffffffffffffffffffffff16021790555091602001919060010190620000df565b5b5090506200014991906200014d565b5090565b5b80821115620001685760008160009055506001016200014e565b5090565b7f4e487b7100000000000000000000000000000000000000000000000000000000600052604160045260246000fd5b6110bf80620001ab6000396000f3fe6080604052600436106100c25760003560e01c8063937e09b11161007f578063e4133d6f11610059578063e4133d6f14610225578063e792dd8a1461024e578063e9f146a31461028b578063f84038b1146102b6576100c2565b8063937e09b1146101c55780639754a3a8146101f0578063b60d42881461021b576100c2565b806312065fe0146100c757806314ec993d146100f25780632f9710291461010957806334b66460146101325780638da5cb5b1461016f57806390e4f4c61461019a575b600080fd5b3480156100d357600080fd5b506100dc6102e1565b6040516100e99190610b94565b60405180910390f35b3480156100fe57600080fd5b506101076102e9565b005b34801561011557600080fd5b50610130600480360381019061012b9190610c12565b6106a4565b005b34801561013e57600080fd5b5061015960048036038101906101549190610c7d565b6106ee565b6040516101669190610cc5565b60405180910390f35b34801561017b57600080fd5b5061018461070e565b6040516101919190610cef565b60405180910390f35b3480156101a657600080fd5b506101af610732565b6040516101bc9190610b94565b60405180910390f35b3480156101d157600080fd5b506101da61073d565b6040516101e79190610b94565b60405180910390f35b3480156101fc57600080fd5b50610205610743565b6040516102129190610dc8565b60405180910390f35b6102236107d1565b005b34801561023157600080fd5b5061024c60048036038101906102479190610c7d565b610843565b005b34801561025a57600080fd5b5061027560048036038101906102709190610e16565b6109c8565b6040516102829190610cef565b60405180910390f35b34801561029757600080fd5b506102a0610a07565b6040516102ad9190610b94565b60405180910390f35b3480156102c257600080fd5b506102cb610a0d565b6040516102d89190610b94565b60405180910390f35b600047905090565b600060048054905011610328576040517f94f26a8600000000000000000000000000000000000000000000000000000000815260040160405180910390fd5b60006004805490506103386102e1565b6103429190610ea1565b905060005b6004805490508110156106a05761039a6040518060400160405280601181526020017f46756e647320496e2043616d706169676e0000000000000000000000000000008152506103956102e1565b610a17565b6104c46040518060400160405280601a81526020017f42616c616e6365206265666f72652073656e64696e6720746f20000000000000815250600483815481106103e7576103e6610ed2565b5b9060005260206000200160009054906101000a900473ffffffffffffffffffffffffffffffffffffffff166004848154811061042657610425610ed2565b5b9060005260206000200160009054906101000a900473ffffffffffffffffffffffffffffffffffffffff1673ffffffffffffffffffffffffffffffffffffffff166312065fe06040518163ffffffff1660e01b8152600401602060405180830381865afa15801561049b573d6000803e3d6000fd5b505050506040513d601f19601f820116820180604052508101906104bf9190610f16565b610ab3565b600481815481106104d8576104d7610ed2565b5b9060005260206000200160009054906101000a900473ffffffffffffffffffffffffffffffffffffffff1673ffffffffffffffffffffffffffffffffffffffff1663d7bb99ba836040518263ffffffff1660e01b81526004016000604051808303818588803b15801561054a57600080fd5b505af115801561055e573d6000803e3d6000fd5b505050505061068d6040518060400160405280601881526020017f42616c616e63652061667465722073656e64696e67746f200000000000000000815250600483815481106105b0576105af610ed2565b5b9060005260206000200160009054906101000a900473ffffffffffffffffffffffffffffffffffffffff16600484815481106105ef576105ee610ed2565b5b9060005260206000200160009054906101000a900473ffffffffffffffffffffffffffffffffffffffff1673ffffffffffffffffffffffffffffffffffffffff166312065fe06040518163ffffffff1660e01b8152600401602060405180830381865afa158015610664573d6000803e3d6000fd5b505050506040513d601f19601f820116820180604052508101906106889190610f16565b610ab3565b808061069890610f43565b915050610347565b5050565b8073ffffffffffffffffffffffffffffffffffffffff166108fc479081150290604051600060405180830381858888f193505050501580156106ea573d6000803e3d6000fd5b5050565b60026020528060005260406000206000915054906101000a900460ff1681565b60008054906101000a900473ffffffffffffffffffffffffffffffffffffffff1681565b66038d7ea4c6800081565b60015481565b606060048054806020026020016040519081016040528092919081815260200182805480156107c757602002820191906000526020600020905b8160009054906101000a900473ffffffffffffffffffffffffffffffffffffffff1673ffffffffffffffffffffffffffffffffffffffff168152602001906001019080831161077d575b5050505050905090565b6001600260003373ffffffffffffffffffffffffffffffffffffffff1673ffffffffffffffffffffffffffffffffffffffff16815260200190815260200160002060006101000a81548160ff0219169083151502179055506003600081548092919061083c90610f43565b9190505550565b60008054906101000a900473ffffffffffffffffffffffffffffffffffffffff1673ffffffffffffffffffffffffffffffffffffffff163373ffffffffffffffffffffffffffffffffffffffff161461089b57600080fd5b60005b600480549050811015610961578173ffffffffffffffffffffffffffffffffffffffff16600482815481106108d6576108d5610ed2565b5b9060005260206000200160009054906101000a900473ffffffffffffffffffffffffffffffffffffffff1673ffffffffffffffffffffffffffffffffffffffff160361094e576040517f5bb7d60100000000000000000000000000000000000000000000000000000000815260040160405180910390fd5b808061095990610f43565b91505061089e565b506004819080600181540180825580915050600190039060005260206000200160009091909190916101000a81548173ffffffffffffffffffffffffffffffffffffffff021916908373ffffffffffffffffffffffffffffffffffffffff16021790555050565b600481815481106109d857600080fd5b906000526020600020016000915054906101000a900473ffffffffffffffffffffffffffffffffffffffff1681565b60035481565b6000600154905090565b610aaf8282604051602401610a2d92919061101b565b6040516020818303038152906040527fb60e72cc000000000000000000000000000000000000000000000000000000007bffffffffffffffffffffffffffffffffffffffffffffffffffffffff19166020820180517bffffffffffffffffffffffffffffffffffffffffffffffffffffffff8381831617835250505050610b52565b5050565b610b4d838383604051602401610acb9392919061104b565b6040516020818303038152906040527f0d26b925000000000000000000000000000000000000000000000000000000007bffffffffffffffffffffffffffffffffffffffffffffffffffffffff19166020820180517bffffffffffffffffffffffffffffffffffffffffffffffffffffffff8381831617835250505050610b52565b505050565b60008151905060006a636f6e736f6c652e6c6f679050602083016000808483855afa5050505050565b6000819050919050565b610b8e81610b7b565b82525050565b6000602082019050610ba96000830184610b85565b92915050565b600080fd5b600073ffffffffffffffffffffffffffffffffffffffff82169050919050565b6000610bdf82610bb4565b9050919050565b610bef81610bd4565b8114610bfa57600080fd5b50565b600081359050610c0c81610be6565b92915050565b600060208284031215610c2857610c27610baf565b5b6000610c3684828501610bfd565b91505092915050565b6000610c4a82610bb4565b9050919050565b610c5a81610c3f565b8114610c6557600080fd5b50565b600081359050610c7781610c51565b92915050565b600060208284031215610c9357610c92610baf565b5b6000610ca184828501610c68565b91505092915050565b60008115159050919050565b610cbf81610caa565b82525050565b6000602082019050610cda6000830184610cb6565b92915050565b610ce981610c3f565b82525050565b6000602082019050610d046000830184610ce0565b92915050565b600081519050919050565b600082825260208201905092915050565b6000819050602082019050919050565b610d3f81610c3f565b82525050565b6000610d518383610d36565b60208301905092915050565b6000602082019050919050565b6000610d7582610d0a565b610d7f8185610d15565b9350610d8a83610d26565b8060005b83811015610dbb578151610da28882610d45565b9750610dad83610d5d565b925050600181019050610d8e565b5085935050505092915050565b60006020820190508181036000830152610de28184610d6a565b905092915050565b610df381610b7b565b8114610dfe57600080fd5b50565b600081359050610e1081610dea565b92915050565b600060208284031215610e2c57610e2b610baf565b5b6000610e3a84828501610e01565b91505092915050565b7f4e487b7100000000000000000000000000000000000000000000000000000000600052601260045260246000fd5b7f4e487b7100000000000000000000000000000000000000000000000000000000600052601160045260246000fd5b6000610eac82610b7b565b9150610eb783610b7b565b925082610ec757610ec6610e43565b5b828204905092915050565b7f4e487b7100000000000000000000000000000000000000000000000000000000600052603260045260246000fd5b600081519050610f1081610dea565b92915050565b600060208284031215610f2c57610f2b610baf565b5b6000610f3a84828501610f01565b91505092915050565b6000610f4e82610b7b565b91507fffffffffffffffffffffffffffffffffffffffffffffffffffffffffffffffff8203610f8057610f7f610e72565b5b600182019050919050565b600081519050919050565b600082825260208201905092915050565b60005b83811015610fc5578082015181840152602081019050610faa565b60008484015250505050565b6000601f19601f8301169050919050565b6000610fed82610f8b565b610ff78185610f96565b9350611007818560208601610fa7565b61101081610fd1565b840191505092915050565b600060408201905081810360008301526110358185610fe2565b90506110446020830184610b85565b9392505050565b600060608201905081810360008301526110658186610fe2565b90506110746020830185610ce0565b6110816040830184610b85565b94935050505056fea2646970667358221220bae9cb3b5c700a16a1f5c9de15066d6ac9f88b5fd8b23679cbffb46d82e42c3164736f6c63430008110033",
  "linkReferences": {},
  "deployedLinkReferences": {}
}