{
  "_format": "hh-sol-artifact-1",
  "contractName": "OrganizationFactory",
  "sourceName": "contracts/OrganizationFactory.sol",
  "abi": [
    {
      "inputs": [
        {
          "internalType": "string",
          "name": "name",
          "type": "string"
        },
        {
          "internalType": "string",
          "name": "description",
          "type": "string"
        },
        {
          "internalType": "string",
          "name": "website",
          "type": "string"
        },
        {
          "internalType": "string",
          "name": "logo",
          "type": "string"
        }
      ],
      "name": "createOrganization",
      "outputs": [],
      "stateMutability": "nonpayable",
      "type": "function"
    },
    {
      "inputs": [],
      "name": "getAllOrganizations",
      "outputs": [
        {
          "internalType": "address[]",
          "name": "",
          "type": "address[]"
        }
      ],
      "stateMutability": "view",
      "type": "function"
    },
    {
      "inputs": [
        {
          "internalType": "uint256",
          "name": "",
          "type": "uint256"
        }
      ],
      "name": "organizations",
      "outputs": [
        {
          "internalType": "address",
          "name": "",
          "type": "address"
        }
      ],
      "stateMutability": "view",
      "type": "function"
    }
  ],
  "bytecode": "0x608060405234801561001057600080fd5b50612229806100206000396000f3fe60806040523480156200001157600080fd5b5060043610620000465760003560e01c8063086ed938146200004b578063c791c83d146200006d578063e792dd8a146200008d575b600080fd5b62000055620000c3565b60405162000064919062000352565b60405180910390f35b6200008b6004803603810190620000859190620004ec565b62000153565b005b620000ab6004803603810190620000a5919062000615565b62000202565b604051620000ba919062000658565b60405180910390f35b606060008054806020026020016040519081016040528092919081815260200182805480156200014957602002820191906000526020600020905b8160009054906101000a900473ffffffffffffffffffffffffffffffffffffffff1673ffffffffffffffffffffffffffffffffffffffff1681526020019060010190808311620000fe575b5050505050905090565b60008484848433604051620001689062000242565b62000178959493929190620006fe565b604051809103906000f08015801562000195573d6000803e3d6000fd5b5090506000819080600181540180825580915050600190039060005260206000200160009091909190916101000a81548173ffffffffffffffffffffffffffffffffffffffff021916908373ffffffffffffffffffffffffffffffffffffffff1602179055505050505050565b600081815481106200021357600080fd5b906000526020600020016000915054906101000a900473ffffffffffffffffffffffffffffffffffffffff1681565b611a7c806200077883390190565b600081519050919050565b600082825260208201905092915050565b6000819050602082019050919050565b600073ffffffffffffffffffffffffffffffffffffffff82169050919050565b6000620002a9826200027c565b9050919050565b620002bb816200029c565b82525050565b6000620002cf8383620002b0565b60208301905092915050565b6000602082019050919050565b6000620002f58262000250565b6200030181856200025b565b93506200030e836200026c565b8060005b8381101562000345578151620003298882620002c1565b97506200033683620002db565b92505060018101905062000312565b5085935050505092915050565b600060208201905081810360008301526200036e8184620002e8565b905092915050565b6000604051905090565b600080fd5b600080fd5b600080fd5b600080fd5b6000601f19601f8301169050919050565b7f4e487b7100000000000000000000000000000000000000000000000000000000600052604160045260246000fd5b620003df8262000394565b810181811067ffffffffffffffff82111715620004015762000400620003a5565b5b80604052505050565b60006200041662000376565b9050620004248282620003d4565b919050565b600067ffffffffffffffff821115620004475762000446620003a5565b5b620004528262000394565b9050602081019050919050565b82818337600083830152505050565b6000620004856200047f8462000429565b6200040a565b905082815260208101848484011115620004a457620004a36200038f565b5b620004b18482856200045f565b509392505050565b600082601f830112620004d157620004d06200038a565b5b8135620004e38482602086016200046e565b91505092915050565b6000806000806080858703121562000509576200050862000380565b5b600085013567ffffffffffffffff8111156200052a576200052962000385565b5b6200053887828801620004b9565b945050602085013567ffffffffffffffff8111156200055c576200055b62000385565b5b6200056a87828801620004b9565b935050604085013567ffffffffffffffff8111156200058e576200058d62000385565b5b6200059c87828801620004b9565b925050606085013567ffffffffffffffff811115620005c057620005bf62000385565b5b620005ce87828801620004b9565b91505092959194509250565b6000819050919050565b620005ef81620005da565b8114620005fb57600080fd5b50565b6000813590506200060f81620005e4565b92915050565b6000602082840312156200062e576200062d62000380565b5b60006200063e84828501620005fe565b91505092915050565b62000652816200029c565b82525050565b60006020820190506200066f600083018462000647565b92915050565b600081519050919050565b600082825260208201905092915050565b60005b83811015620006b157808201518184015260208101905062000694565b60008484015250505050565b6000620006ca8262000675565b620006d6818562000680565b9350620006e881856020860162000691565b620006f38162000394565b840191505092915050565b600060a08201905081810360008301526200071a8188620006bd565b90508181036020830152620007308187620006bd565b90508181036040830152620007468186620006bd565b905081810360608301526200075c8185620006bd565b90506200076d608083018462000647565b969550505050505056fe60806040523480156200001157600080fd5b5060405162001a7c38038062001a7c8339818101604052810190620000379190620002c2565b806000806101000a81548173ffffffffffffffffffffffffffffffffffffffff021916908373ffffffffffffffffffffffffffffffffffffffff160217905550846001908162000088919062000611565b5083600290816200009a919062000611565b508260039081620000ac919062000611565b508160049081620000be919062000611565b505050505050620006f8565b6000604051905090565b600080fd5b600080fd5b600080fd5b600080fd5b6000601f19601f8301169050919050565b7f4e487b7100000000000000000000000000000000000000000000000000000000600052604160045260246000fd5b6200013382620000e8565b810181811067ffffffffffffffff82111715620001555762000154620000f9565b5b80604052505050565b60006200016a620000ca565b905062000178828262000128565b919050565b600067ffffffffffffffff8211156200019b576200019a620000f9565b5b620001a682620000e8565b9050602081019050919050565b60005b83811015620001d3578082015181840152602081019050620001b6565b60008484015250505050565b6000620001f6620001f0846200017d565b6200015e565b905082815260208101848484011115620002155762000214620000e3565b5b62000222848285620001b3565b509392505050565b600082601f830112620002425762000241620000de565b5b815162000254848260208601620001df565b91505092915050565b600073ffffffffffffffffffffffffffffffffffffffff82169050919050565b60006200028a826200025d565b9050919050565b6200029c816200027d565b8114620002a857600080fd5b50565b600081519050620002bc8162000291565b92915050565b600080600080600060a08688031215620002e157620002e0620000d4565b5b600086015167ffffffffffffffff811115620003025762000301620000d9565b5b62000310888289016200022a565b955050602086015167ffffffffffffffff811115620003345762000333620000d9565b5b62000342888289016200022a565b945050604086015167ffffffffffffffff811115620003665762000365620000d9565b5b62000374888289016200022a565b935050606086015167ffffffffffffffff811115620003985762000397620000d9565b5b620003a6888289016200022a565b9250506080620003b988828901620002ab565b9150509295509295909350565b600081519050919050565b7f4e487b7100000000000000000000000000000000000000000000000000000000600052602260045260246000fd5b600060028204905060018216806200041957607f821691505b6020821081036200042f576200042e620003d1565b5b50919050565b60008190508160005260206000209050919050565b60006020601f8301049050919050565b600082821b905092915050565b600060088302620004997fffffffffffffffffffffffffffffffffffffffffffffffffffffffffffffffff826200045a565b620004a586836200045a565b95508019841693508086168417925050509392505050565b6000819050919050565b6000819050919050565b6000620004f2620004ec620004e684620004bd565b620004c7565b620004bd565b9050919050565b6000819050919050565b6200050e83620004d1565b620005266200051d82620004f9565b84845462000467565b825550505050565b600090565b6200053d6200052e565b6200054a81848462000503565b505050565b5b8181101562000572576200056660008262000533565b60018101905062000550565b5050565b601f821115620005c1576200058b8162000435565b62000596846200044a565b81016020851015620005a6578190505b620005be620005b5856200044a565b8301826200054f565b50505b505050565b600082821c905092915050565b6000620005e660001984600802620005c6565b1980831691505092915050565b6000620006018383620005d3565b9150826002028217905092915050565b6200061c82620003c6565b67ffffffffffffffff811115620006385762000637620000f9565b5b62000644825462000400565b6200065182828562000576565b600060209050601f83116001811462000689576000841562000674578287015190505b620006808582620005f3565b865550620006f0565b601f198416620006998662000435565b60005b82811015620006c3578489015182556001820191506020850194506020810190506200069c565b86831015620006e35784890151620006df601f891682620005d3565b8355505b6001600288020188555050505b505050505050565b61137480620007086000396000f3fe60806040526004361061012a5760003560e01c80638da5cb5b116100ab578063d7bb99ba1161006f578063d7bb99ba146103c0578063e9f146a3146103ca578063f274c897146103f5578063f84038b11461041e578063fb7f21eb14610449578063fbbf93a0146104745761012a565b80638da5cb5b146102eb578063937e09b114610316578063beb0a41614610341578063cb31ac9a1461036c578063d0e06220146103975761012a565b806344c89b65116100f257806344c89b65146102285780637284e416146102535780637dafd3c01461027e5780637e6253da1461029557806386cdf604146102c05761012a565b806306fdde031461012f5780630adec93c1461015a57806312065fe014610183578063141961bc146101ae57806334b66460146101eb575b600080fd5b34801561013b57600080fd5b506101446104a4565b6040516101519190610e62565b60405180910390f35b34801561016657600080fd5b50610181600480360381019061017c9190610ee7565b610532565b005b34801561018f57600080fd5b506101986105db565b6040516101a59190610f2d565b60405180910390f35b3480156101ba57600080fd5b506101d560048036038101906101d09190610f74565b6105e3565b6040516101e29190610fc2565b60405180910390f35b3480156101f757600080fd5b50610212600480360381019061020d9190611009565b610622565b60405161021f9190611051565b60405180910390f35b34801561023457600080fd5b5061023d610642565b60405161024a9190610f2d565b60405180910390f35b34801561025f57600080fd5b50610268610648565b6040516102759190610e62565b60405180910390f35b34801561028a57600080fd5b506102936106d6565b005b3480156102a157600080fd5b506102aa6106f0565b6040516102b79190610f2d565b60405180910390f35b3480156102cc57600080fd5b506102d56106fa565b6040516102e2919061112a565b60405180910390f35b3480156102f757600080fd5b50610300610788565b60405161030d9190610fc2565b60405180910390f35b34801561032257600080fd5b5061032b6107ac565b6040516103389190610f2d565b60405180910390f35b34801561034d57600080fd5b506103566107b2565b6040516103639190610e62565b60405180910390f35b34801561037857600080fd5b50610381610840565b60405161038e919061112a565b60405180910390f35b3480156103a357600080fd5b506103be60048036038101906103b99190611009565b610931565b005b6103c86109a6565b005b3480156103d657600080fd5b506103df610a18565b6040516103ec9190610f2d565b60405180910390f35b34801561040157600080fd5b5061041c6004803603810190610417919061114c565b610a1e565b005b34801561042a57600080fd5b50610433610ad5565b6040516104409190610f2d565b60405180910390f35b34801561045557600080fd5b5061045e610adf565b60405161046b9190610e62565b60405180910390f35b34801561048057600080fd5b50610489610b6d565b60405161049b9695949392919061118c565b60405180910390f35b600180546104b190611238565b80601f01602080910402602001604051908101604052809291908181526020018280546104dd90611238565b801561052a5780601f106104ff5761010080835404028352916020019161052a565b820191906000526020600020905b81548152906001019060200180831161050d57829003601f168201915b505050505081565b60008054906101000a900473ffffffffffffffffffffffffffffffffffffffff1673ffffffffffffffffffffffffffffffffffffffff163373ffffffffffffffffffffffffffffffffffffffff161461058a57600080fd5b8073ffffffffffffffffffffffffffffffffffffffff166108fc6105ac6105db565b9081150290604051600060405180830381858888f193505050501580156105d7573d6000803e3d6000fd5b5050565b600047905090565b600981815481106105f357600080fd5b906000526020600020016000915054906101000a900473ffffffffffffffffffffffffffffffffffffffff1681565b60066020528060005260406000206000915054906101000a900460ff1681565b60085481565b6002805461065590611238565b80601f016020809104026020016040519081016040528092919081815260200182805461068190611238565b80156106ce5780601f106106a3576101008083540402835291602001916106ce565b820191906000526020600020905b8154815290600101906020018083116106b157829003601f168201915b505050505081565b600860008154809291906106e990611298565b9190505550565b6000600854905090565b6060600980548060200260200160405190810160405280929190818152602001828054801561077e57602002820191906000526020600020905b8160009054906101000a900473ffffffffffffffffffffffffffffffffffffffff1673ffffffffffffffffffffffffffffffffffffffff1681526020019060010190808311610734575b5050505050905090565b60008054906101000a900473ffffffffffffffffffffffffffffffffffffffff1681565b60055481565b600380546107bf90611238565b80601f01602080910402602001604051908101604052809291908181526020018280546107eb90611238565b80156108385780601f1061080d57610100808354040283529160200191610838565b820191906000526020600020905b81548152906001019060200180831161081b57829003601f168201915b505050505081565b6060600060075467ffffffffffffffff8111156108605761085f6112e0565b5b60405190808252806020026020018201604052801561088e5781602001602082028036833780820191505090505b5090506000805b600754811015610928578281815181106108b2576108b161130f565b5b60200260200101518383815181106108cd576108cc61130f565b5b602002602001019073ffffffffffffffffffffffffffffffffffffffff16908173ffffffffffffffffffffffffffffffffffffffff1681525050818061091290611298565b925050808061092090611298565b915050610895565b50819250505090565b60036008541061094057600080fd5b6009819080600181540180825580915050600190039060005260206000200160009091909190916101000a81548173ffffffffffffffffffffffffffffffffffffffff021916908373ffffffffffffffffffffffffffffffffffffffff16021790555050565b6001600660003373ffffffffffffffffffffffffffffffffffffffff1673ffffffffffffffffffffffffffffffffffffffff16815260200190815260200160002060006101000a81548160ff02191690831515021790555060076000815480929190610a1190611298565b9190505550565b60075481565b60008054906101000a900473ffffffffffffffffffffffffffffffffffffffff1673ffffffffffffffffffffffffffffffffffffffff163373ffffffffffffffffffffffffffffffffffffffff1614610a7657600080fd5b610a7e6105db565b811115610a8a57600080fd5b8173ffffffffffffffffffffffffffffffffffffffff166108fc829081150290604051600060405180830381858888f19350505050158015610ad0573d6000803e3d6000fd5b505050565b6000600554905090565b60048054610aec90611238565b80601f0160208091040260200160405190810160405280929190818152602001828054610b1890611238565b8015610b655780601f10610b3a57610100808354040283529160200191610b65565b820191906000526020600020905b815481529060010190602001808311610b4857829003601f168201915b505050505081565b6060806060806000806001600260036004610b866105db565b610b8e610ad5565b858054610b9a90611238565b80601f0160208091040260200160405190810160405280929190818152602001828054610bc690611238565b8015610c135780601f10610be857610100808354040283529160200191610c13565b820191906000526020600020905b815481529060010190602001808311610bf657829003601f168201915b50505050509550848054610c2690611238565b80601f0160208091040260200160405190810160405280929190818152602001828054610c5290611238565b8015610c9f5780601f10610c7457610100808354040283529160200191610c9f565b820191906000526020600020905b815481529060010190602001808311610c8257829003601f168201915b50505050509450838054610cb290611238565b80601f0160208091040260200160405190810160405280929190818152602001828054610cde90611238565b8015610d2b5780601f10610d0057610100808354040283529160200191610d2b565b820191906000526020600020905b815481529060010190602001808311610d0e57829003601f168201915b50505050509350828054610d3e90611238565b80601f0160208091040260200160405190810160405280929190818152602001828054610d6a90611238565b8015610db75780601f10610d8c57610100808354040283529160200191610db7565b820191906000526020600020905b815481529060010190602001808311610d9a57829003601f168201915b50505050509250955095509550955095509550909192939495565b600081519050919050565b600082825260208201905092915050565b60005b83811015610e0c578082015181840152602081019050610df1565b60008484015250505050565b6000601f19601f8301169050919050565b6000610e3482610dd2565b610e3e8185610ddd565b9350610e4e818560208601610dee565b610e5781610e18565b840191505092915050565b60006020820190508181036000830152610e7c8184610e29565b905092915050565b600080fd5b600073ffffffffffffffffffffffffffffffffffffffff82169050919050565b6000610eb482610e89565b9050919050565b610ec481610ea9565b8114610ecf57600080fd5b50565b600081359050610ee181610ebb565b92915050565b600060208284031215610efd57610efc610e84565b5b6000610f0b84828501610ed2565b91505092915050565b6000819050919050565b610f2781610f14565b82525050565b6000602082019050610f426000830184610f1e565b92915050565b610f5181610f14565b8114610f5c57600080fd5b50565b600081359050610f6e81610f48565b92915050565b600060208284031215610f8a57610f89610e84565b5b6000610f9884828501610f5f565b91505092915050565b6000610fac82610e89565b9050919050565b610fbc81610fa1565b82525050565b6000602082019050610fd76000830184610fb3565b92915050565b610fe681610fa1565b8114610ff157600080fd5b50565b60008135905061100381610fdd565b92915050565b60006020828403121561101f5761101e610e84565b5b600061102d84828501610ff4565b91505092915050565b60008115159050919050565b61104b81611036565b82525050565b60006020820190506110666000830184611042565b92915050565b600081519050919050565b600082825260208201905092915050565b6000819050602082019050919050565b6110a181610fa1565b82525050565b60006110b38383611098565b60208301905092915050565b6000602082019050919050565b60006110d78261106c565b6110e18185611077565b93506110ec83611088565b8060005b8381101561111d57815161110488826110a7565b975061110f836110bf565b9250506001810190506110f0565b5085935050505092915050565b6000602082019050818103600083015261114481846110cc565b905092915050565b6000806040838503121561116357611162610e84565b5b600061117185828601610ed2565b925050602061118285828601610f5f565b9150509250929050565b600060c08201905081810360008301526111a68189610e29565b905081810360208301526111ba8188610e29565b905081810360408301526111ce8187610e29565b905081810360608301526111e28186610e29565b90506111f16080830185610f1e565b6111fe60a0830184610f1e565b979650505050505050565b7f4e487b7100000000000000000000000000000000000000000000000000000000600052602260045260246000fd5b6000600282049050600182168061125057607f821691505b60208210810361126357611262611209565b5b50919050565b7f4e487b7100000000000000000000000000000000000000000000000000000000600052601160045260246000fd5b60006112a382610f14565b91507fffffffffffffffffffffffffffffffffffffffffffffffffffffffffffffffff82036112d5576112d4611269565b5b600182019050919050565b7f4e487b7100000000000000000000000000000000000000000000000000000000600052604160045260246000fd5b7f4e487b7100000000000000000000000000000000000000000000000000000000600052603260045260246000fdfea26469706673582212201eb91b06a47856b31f73c4124c84b089075a3039f3d6f14985f0ffc4b6ccfe1664736f6c63430008110033a26469706673582212200a4bf2e80ca960a5270c2c9c7e0f9812ad905485cf7a71e9019f10a9c1c7474564736f6c63430008110033",
  "linkReferences": {},
  "deployedLinkReferences": {}
}